:020000040800F2
:100000001811002005010008E1140008511400082F
:1000100055140008D50D0008011D0008000000005F
:10002000000000000000000000000000C9160008E9
:10003000D90D000800000000B1150008B517000830
:100040001F0100081F0100081F0100081F01000810
:100050001F0100081F010008B10E00081F01000861
:100060001F0100081F0100081F0100081F010008F0
:100070001F0100081F0100081F0100081F010008E0
:100080001F0100081F010008D50800081F01000813
:100090001F0100081F0100081F010008C50E00080D
:1000A0001F0100081F0100081F0100081F010008B0
:1000B0001F0100081F0100081F0100081F010008A0
:1000C0001F0100081F0100081F0100081F01000890
:1000D0001F0100081F0100081F0100081F01000880
:1000E0001F0100081F0100081F010008DFF810D0E1
:1000F00000F0DEFB00480047A9270008AFF30080AE
:10010000181100200648804706480047FEE7FEE732
:10011000FEE7FEE7FEE7FEE7FEE7FEE7FEE7FEE7B7
:10012000D1170008ED000008D2B201E000F8012B61
:10013000491EFBD270470022F6E710B513460A4667
:1001400004461946FFF7F0FF204610BD421C10F888
:10015000011B0029FBD1801A704780EA010210B50B
:1001600002F00043400022D04A001FD0010E01EBF4
:100170001261C0F35600C2F3560240F4000042F48C
:100180000002A0FB022000047F39140400D0401CB0
:1001900050EA124001D44000491EC2B20C0604EBE2
:1001A000D010401C4008802A02D003E0002010BD7F
:1001B00020F00100002900DA0020184310BD30B4FF
:1001C00080EA010202F0004530F0004221F00040D8
:1001D00013D090B1C30DD40DC2F31601C0F31600B5
:1001E000E41A41F4000140F400027D34914201D34D
:1001F000641C00E04900002C02DA30BC002070478B
:100200004FF400000023914201D3891A03434008B0
:100210004FEA4101F7D151B1914202D14FF0004173
:1002200005E002D24FF0010101E06FF0010103EBA4
:10023000C450284430BC00F0A7BA2DE9FE4F8046D8
:1002400081EA0300C00F0C46009021F0004123F02A
:100250000045B8EB0200A94105D240462146904630
:100260001C460B46024623F00040104347D0270DA2
:10027000C7F30A00C3F30A510290401A01904028C4
:100280006BDAC3F3130040F4801B0098924620B150
:100290000023D2EB030A63EB0B0B01985946C0F124
:1002A0004002504600F03FFA06460D465046594679
:1002B000019A00F057FA10EB08006141002487EA28
:1002C000115284EAE7731A4340D0009A62B3019A4C
:1002D000012A4FEA075215DC001B61EB02014FF0C7
:1002E000004202EA0752CDE90042001C41F58011AC
:1002F00032462B4600F08EFA03B0BDE8F08F404640
:100300002146F9E7001B61EB0201001C41F5801357
:1003100000185B412018A2F5001747EB030140EAE3
:10032000D570B6196D4111E06D084FEA360645EA01
:10033000C0754FEA0752001B61EB0201001C41F53A
:10034000801149084FEA30000019514132462B46CE
:1003500003B0BDE8F04F00F04EBA00980122400013
:100360000023D0EB020263EBE073009821464FEAD2
:10037000E074B8EB000061EB0401E9E783F00043AF
:100380005BE781F0004158E72DE9FE4F81EA030465
:1003900004F0004421F0004100944FF0000B23F0E2
:1003A000004350EA01045ED052EA03045BD0C3F379
:1003B0000A54C1F30A552C44A4F2F3340194A0FB6F
:1003C0000254C1F3130141F48011C3F3130343F446
:1003D000801301FB024400FB034E840A970A44EA9F
:1003E000815447EA8357A4FB076802958D0A05FBF1
:1003F00007854FEA932C04FB0C542705029D4FEA16
:10040000065847EA1637B5EB08056EEB070C870E62
:10041000920E47EA811742EA8312A7FB0201B6EB6C
:100420000B0164EB00042B0D43EA0C335E1844EB24
:100430001C50DA465146E7FB0201C5F313044FEAAC
:100440000B3343EA14534FEA0432019C43EA060398
:10045000A4F10C040294009CCDE900B400F0DAF998
:1004600003B0BDE8F08F00200146F9E72DE9F04D1B
:1004700081EA030404F0004B21F0004514464FF0DC
:10048000000A23F0004150EA050220D054EA01029C
:100490001DD0C5F30A570246C5F31303C1F3130079
:1004A000C1F30A5640F4801543F48013A7EB060805
:1004B000101BD64608F2FD3873EB050002D308F195
:1004C000010801E092185B41B8F1000F03DA002047
:1004D0000146BDE8F08D00204FF4801106468446A9
:1004E0000EE0171B73EB050705D3121B63EB050327
:1004F00006434CEA010C49084FEA300092185B4170
:1005000050EA0107EDD152EA030012D082EA04005A
:1005100083EA0501084305D0101BAB4106D2012236
:10052000002306E000224FF0004302E06FF00102DA
:1005300053101AEB06004CEB085110EB0A0041EB8C
:100540000B01BDE8F04D00F056B9C10F80EAE07034
:100550000844CA079623002100F01FB99623002201
:10056000114600F01AB930B404469623080021461B
:1005700004D0B62330BC002200F00FB92046002181
:10058000F8E70EB540F2334102910021CDE90011A8
:100590000A460B4600F03EF903B000BD20F00040D3
:1005A000C10DC0F3160040F400007F2901DA0020DD
:1005B0007047962903DCC1F19601C840704796390F
:1005C00088407047C1F30A52C1F3130140F2FF3370
:1005D00041F480119A4202DA00200146704740F24D
:1005E00033439A42A2F2334202DC524200F0AAB8EC
:1005F00000F099B800F0004230F000400AD0C10D80
:1006000001F56071C0F3160042EA0151C2084007CB
:1006100011437047002001467047000030B5041EAA
:1006200071F1000404DB4FF00044404264EB01012F
:10063000141E73F1000405DB1C464FF000435242C8
:1006400063EB0403994208BF904230BD01F00043C0
:1006500030B421F0004150EA010206D00A0DA2F5A3
:100660006072C1F31301002A02DC30BC0020704725
:10067000440F44EAC104C100E01830BC00EBC25092
:1006800000F082B8002801DBC0F10040002901DB46
:10069000C1F100418842704730B50B460146002049
:1006A0002022012409E021FA02F59D4205D303FA34
:1006B00002F5491B04FA02F52844151EA2F10102B5
:1006C000F1DC30BD2DE9F05F0546002092469B46E7
:1006D00088460646814640241BE028464146474658
:1006E000224600F02FF853465A46C01A914110D3C3
:1006F00011461846224600F016F82D1A67EB01083D
:100700004F4622460120002100F00DF817EB0009AA
:100710004E41201EA4F10104DFDC484631462A4642
:100720004346BDE8F09F202A04DB203A00FA02F19C
:10073000002070479140C2F1200320FA03F31943CF
:1007400090407047202A04DB203A21FA02F0002171
:10075000704721FA02F3D040C2F1200291400843D1
:1007600019467047202A06DBCB17203A41FA02F0DF
:1007700043EAE07306E041FA02F3D040C2F12002FE
:1007800091400843194670470029A8BF7047401C94
:10079000490008BF20F00100704710B4B0FA80FC97
:1007A00000FA0CF050EA010404BF10BC704749B1D4
:1007B000CCF1200421FA04F411FA0CF118BF012144
:1007C00021430843A3EB0C01CB1D4FEA00614FEA24
:1007D000102042BF002010BC704700EBC3501044F3
:1007E0000029A4BF10BC7047401C490008BF20F07E
:1007F000010010BC704710B5141E73F1000408DA34
:10080000401C41F1000192185B411A4301D120F0D4
:10081000010010BD2DE9F04D92469B4611B1B1FA91
:1008200081F202E0B0FA80F220329046FFF77BFFBF
:1008300004460F4640EA0A0041EA0B0153465A4675
:10084000084313D0114653EA010019D0C8F1400201
:100850005046FFF777FF05460E465046594642463A
:10086000FFF761FF084305D0012004E02046394628
:10087000BDE8F08D0020054346EAE0762C4337437F
:100880000A986305E40AA0EB08000022FD0A44EA86
:1008900047540A3002D500200146E9E70105101946
:1008A0006941DDE9084500196941BDE8F04DA2E75D
:1008B000064C074D06E0E06840F0010394E80700AD
:1008C00098471034AC42F6D3FFF714FC5C280008BC
:1008D0007C2800082DE9FE4F0421194800F03DF85E
:1008E00001282AD10421164800F034F814211448B4
:1008F00000F03CF802900298FFF730FE114900909A
:10090000FFF75DFC0190FFF775FE80464FF0663201
:100910000D4BFFF739FD06464FF040420B4BFFF7FA
:1009200033FD04464FF06632074BFFF79FFD8246CA
:10093000FFF78CFE0649086000BFBDE8FE8F00008F
:100940000024014000F07F4566660A40CCCC204080
:1009500000000020CA43026070470246002013686E
:100960000B400BB1012000E00020704708B50246A3
:1009700000200090009201F12800009B1844009094
:100980000098006880B208BD2DE9F04104460D468C
:1009900016461F460DB9BDE8F081A8476660A760FE
:1009A00000212161616101202076002020636063C5
:1009B000A163E1632064606400BFECE72DE9F04FC0
:1009C00087B0824672B69AF918000690DAF830407D
:1009D000DAF83450DAF83860DAF83C7062B6069823
:1009E000022802D00698801C28B90020CAF84400CA
:1009F000CAF840003BE000F0EBFC80468946B8EBCB
:100A0000040169EB0500A31B65EB0702C91A9041BD
:100A10000BD2A21B65EB07011046FFF7A4FD284986
:100A20000590FFF79AFB83460BE0B8EB040269EBF5
:100A300005011046FFF797FD21490590FFF78DFB53
:100A400083460698FFF781FD59460290FFF7B7FBF2
:100A50001C490390FFF7B3FB1B490490FFF7AFFB62
:100A60001A490590FFF779FBCAF8400000BFDAF891
:100A70004400FFF7BFFD8046154A164BFFF784FC84
:100A8000CDE90201DAF84000FFF7B4FD8046124AD2
:100A9000124BFFF779FCCDE90001DDE90223FFF7F6
:100AA000CCFBCDE90401FFF7D1FDCAF84000DAF82C
:100AB0004000CAF84400DAF8400007B0BDE8F08F03
:100AC000BD3786350000B041F344A3410000B44374
:100AD000CDCCCCCCCCCCEC3F9A9999999999B93F93
:100AE00010B50248FFF76AFF10BD0000900000201B
:100AF00010B50348FFF762FF80F0004010BD000012
:100B00004800002010B5064B064A07490748FFF782
:100B10003BFF074B074A08490848FFF735FF10BD60
:100B2000E9260008D9260008051100084800002021
:100B3000C9260008B9260008791000089000002096
:100B400000B589B0002008900121084600F042FD60
:100B50000121042000F03EFD0121082000F03AFDB3
:100B60001820ADF8200000208DF8230002208DF819
:100B7000220008A9354800F045FBC020ADF8200050
:100B800018208DF8230002208DF8220008A92F4894
:100B900000F038FB0320ADF8200008A92C4800F035
:100BA00031FB0121022000F005FD00200590069098
:100BB0000790ADF8160040F21F30ADF8180008207D
:100BC000ADF8140000208DF81C0005A9214800F0A4
:100BD000BBFF6020ADF804000120ADF80600002046
:100BE000ADF80A000220ADF80C00C001ADF810000D
:100BF00001A9184800F044FE0821164800F08CFEB8
:100C000001A9144800F092FE0821124800F0E0FE0D
:100C100001A9104800F0EAFE08210E4800F036FF56
:100C200001A90C4800F03CFF08210A4800F076FFBB
:100C30000121084800F014FE0121064800F0F8FDEB
:100C40000121044800F000FE09B000BD0008014089
:100C5000000C0140000400402DE9F0410446002151
:100C60002046FFF70FFD02D84FF07E5500E0144DEF
:100C7000204620F000410C4612492046FFF79FFA1B
:100C800080461149FFF769FA0746FFF787FC86B2ED
:100C900000212846FFF7F6FC08D800210B4800F099
:100CA0004CFF3146094800F04AFF07E000210748A1
:100CB00000F045FF3146054800F03FFFBDE8F081F8
:100CC000000080BF0000C84200004844000400400B
:100CD0002DE9F041044600212046FFF7D3FC02D85D
:100CE0004FF07E5500E0144D204620F000410C46A8
:100CF00012492046FFF763FA80461149FFF72DFAA3
:100D00000746FFF74BFC86B200212846FFF7BAFCE6
:100D100008D800210B4800F00EFF3146094800F0CA
:100D200010FF07E00021074800F00BFF314605489F
:100D300000F001FFBDE8F081000080BF0000C84264
:100D4000000048440004004000B585B0012108209F
:100D500000F040FC002004904FF48060ADF81000DB
:100D600018208DF8130002208DF8120004A91748EE
:100D700000F048FA4FF40060ADF8100048208DF8FC
:100D8000130004A9114800F03DFA0121880400F085
:100D900011FC002000900190029003904FF461201C
:100DA00000900C20ADF80A000020ADF80800ADF866
:100DB0000600ADF804006946054800F031FF012146
:100DC000034800F013FF05B000BD0000000C014017
:100DD0000048004000BFFEE7704700002DE9F041E9
:100DE00086B02E480078002855D101202B49087084
:100DF000142101A8FFF79FF94FF0E020006920F0CF
:100E000001004FF0E021086100202549086001A899
:100E100000F0F0FB4FF0E020006940F002004FF0DE
:100E2000E021086100211F48C1774FF47A710298D0
:100E3000B0FBF1F4B4F1807F09D3E4084FF0E02077
:100E4000006920F004004FF0E021086107E04FF056
:100E5000E020006940F004004FF0E0210861601ECE
:100E60004FF0E02148610846006940F00100086148
:100E7000496921F07F41481CFFF783FB07463A464A
:100E80000B4600200849FFF7F1FA0546FFF7DEFBA5
:100E90000649086000BF06B0BDE8F0813C000020B4
:100EA0003800002000ED00E000408F4040000020AE
:100EB00010B5012000F016F8014800F06FF810BDE1
:100EC0009000002010B5402000F012F8012805D154
:100ED000402000F007F8024800F060F810BD000064
:100EE00048000020014908607047000014040140D8
:100EF00001460020034A12680A400AB1012000E0BE
:100F00000020704714040140002123498279002AFF
:100F10003AD00A46126803689A430B461A600A1DC3
:100F2000126803689A430B1D1A60027911440A681B
:100F300003681A430A60184A0832126803689A4321
:100F4000154B08331A601A1D126803689A43124B36
:100F50000C331A604279102A0ED11A1F12680368E6
:100F60001A430D4B08331A601A1D126803681A439E
:100F7000094B0C331A600DE00749427911440A68A5
:100F800003681A430A6005E0027911440A6803689D
:100F90009A430A6070470000000401402DE9F041C7
:100FA000044600F015FA05460E46206B616B2B1ABD
:100FB00066EB01004FF496729A1A70F1000001D2AC
:100FC000BDE8F081206B616BA063E163256366631C
:100FD000606880478046A0688047074688EA070027
:100FE00010B10120607601E0FF20607694F91900CD
:100FF00094F91A10884238D1E07E02282FDB607EF7
:10100000012810D122696069521C40F10000226160
:10101000606194F91800002802DA0220207612E0BC
:10102000012020760FE021696069491E60F100000F
:101030002161606194F91800002802DDFE2020760D
:1010400001E0FF202076207E022801D101202076B9
:1010500094F91800801C60B9FF20207609E0E07E3A
:10106000401CE076E07E207703E00020E076607EA2
:10107000A07600BFA4E700001FB50121084600F0DC
:10108000A9FA01211D4800F049F90121042000F0CE
:10109000A1FA002003900320ADF80C0048208DF841
:1010A0000F0003A9164800F0ADF80121084600F032
:1010B00091FA0021084600F085F800200190029086
:1010C000012001908DF80A0000208DF80800102002
:1010D0008DF8090001A8FFF717FF002000900620F7
:1010E0008DF8000001208DF8030000208DF801002C
:1010F0008DF80200684600F0F5F91FBD00023000CF
:10110000000801401FB50121082000F063FA00200B
:101110000390C020ADF80C0048208DF80F0003A903
:10112000164800F06FF80121084600F053FA062136
:10113000012000F047F8002001900290402001902B
:1011400001208DF80A0000208DF8080010208DF88D
:10115000090001A8FFF7D8FE0020009017208DF8A5
:10116000000001208DF8030000208DF801008DF8AB
:101170000200684600F0B6F91FBD0000000C0140F7
:101180002DE9FC47FFF7ACFC8046FFF7B1FC814638
:101190004846FFF72FFA04460D464046FFF72AFA65
:1011A000064632460B4604A10548CDE9004500F04D
:1011B00053F9BDE8FC87000025662C25660A00006F
:1011C0000048004030B500228B071C0F0F2303FAA4
:1011D00004F20B4B8C1053F824309343084C8D10C1
:1011E00044F8253023468C1053F824308C07240F04
:1011F00000FA04F42343024C8D1044F8253030BD2E
:10120000080001402DE9F04102460025002600209B
:1012100000230024002791F803C00CF00F0591F87B
:1012200003C00CF0100CBCF1000F03D091F802C009
:101230004CEA050591F800C0BCF1000F31D01468EC
:1012400000202BE04FF0010C0CFA00F3B1F800C0C5
:101250000CEA03069E4220D183004FF00F0C0CFADB
:1012600003F7BC4305FA03FC4CEA040491F803C0FD
:10127000BCF1280F06D14FF0010C0CFA00FCC2F8AB
:1012800014C00AE091F803C0BCF1480F05D14FF03B
:10129000010C0CFA00FCC2F810C0401C0828D1D385
:1012A0001460B1F800C0BCF1FF0F34DD54680020B9
:1012B0002EE000F1080C4FF0010808FA0CF3B1F829
:1012C00000C00CEA03069E4221D183004FF00F0CB0
:1012D0000CFA03F7BC4305FA03FC4CEA040491F84A
:1012E00003C0BCF1280F05D100F1080C08FA0CF876
:1012F000C2F8148091F803C0BCF1480F07D100F187
:10130000080C4FF0010808FA0CF8C2F81080401CD5
:101310000828CED35460BDE8F0810000F0B50A463D
:10132000002300240021002500F00046B6F1004F04
:1013300002D11D4EF16901E01B4E7168C0F30345F7
:1013400083B200F44016B6F5401F08D121F0706159
:10135000154E766826F07066134F7E6012E000F43A
:101360008016B6F5801F06D1032606FA05F4A143C0
:1013700041F0706106E0460D360103FA06F6B1430E
:1013800041F0706122B1460D360103FA06F6314391
:1013900000F00046B6F1004F02D1034EF16101E0CA
:1013A000014E7160F0BD00000000014002460020C7
:1013B00093680B400BB1012000E000207047000053
:1013C00010B5FFF70BFD0148006810BD3800002084
:1013D0002DE9F041FFF702FD72B610E01A480468EB
:1013E00000254FF0E0208669006900F4803028B1C4
:1013F00015480068401C1449086000E000E0EDE773
:1014000000BF62B64FF47A7200272046A0FB021C90
:1014100005FB02C204FB07250C464FF0E021496999
:10142000881BFFF79BF88046084801684046FEF796
:1014300094FE0746FFF7B2F8041945F1000520466F
:101440002946BDE8F081000038000020400000205F
:1014500000BFFEE700BFFEE70FB410B5A2B0044620
:1014600026A8019002A8019A259900F04BFC0020C3
:10147000019002A9204600F026F822B010BC5DF8C9
:1014800014FB2DE9F04107460E4614460CB9BDE8A1
:10149000F08100250CE000BF8021384600F0B2FB4F
:1014A0000028F9D0715D384600F026FC681C85B232
:1014B000A542F0DB00BF4021384600F0A3FB002826
:1014C000F9D000BFE3E770B505460C462046FEF7AD
:1014D0003DFE86B2324621462846FFF7D2FF70BD58
:1014E0007047000070B5002100230F22C47804B3B8
:1014F000154C246804F4E064C4F5E064210AC1F1E9
:101500000403CA40447804FA03F184781440214368
:1015100009010E4C0678A155047804F01F0501243A
:10152000AC4005786D11AD0005F1E025C5F800412E
:1015300009E0047804F01F050124AC40044D06784E
:10154000761145F8264070BD0CED00E000E400E0A7
:1015500080E100E002490143024A11607047000047
:101560000000FA050CED00E010B50E480068401CC4
:101570000C49086008460068032190FBF1F201FB6A
:1015800012000849086008480068FEF7DEFF0446BC
:10159000FFF762FB05480068FEF7D7FF0446FFF738
:1015A00097FB10BD18000020100000200C00002048
:1015B0007047000029B1064AD2690243044BDA6140
:1015C00004E0034AD2698243014BDA6170470000AC
:1015D0000010024029B1064A92690243044B9A6105
:1015E00004E0034A92698243014B9A61704700000C
:1015F0000010024030B500210022002400232D4DB0
:101600006D6805F00C0121B1042905D0082923D10A
:1016100005E0294D056022E0274D05601FE0254DBE
:101620006D6805F47012234D6D6805F48034022551
:1016300005EB92421CB9214D554305600BE01D4D51
:101640006D6805F400351DB11C4D5543056002E081
:10165000194D5543056002E0174D056000BF00BFFE
:10166000144D6D6805F0F0010909154D6B5C0568B6
:10167000DD4045600F4D6D6805F4E061090A104DCD
:101680006B5C4568DD4085600A4D6D6805F460510E
:10169000C90A0B4D6B5C4568DD40C560054D6D6842
:1016A00005F44041890B074D6B5CC568B5FBF3F54C
:1016B000056130BD0010024000127A0000093D00B3
:1016C0002400002034000020704710B500F002F81C
:1016D00010BD00000CB50020019000903348006858
:1016E00040F480303149086000BF3048006800F4A1
:1016F000003000900198401C0190009818B90198A2
:10170000B0F5A06FF1D12948006800F4003010B1A5
:101710000120009001E0002000900098012843D1B2
:101720002348006840F0100021490860084600681E
:1017300020F0070008600846006840F002000860DA
:101740001A48406819494860084640684860084699
:10175000406840F4806048600846406820F47C108F
:1017600048600846406840F4E81048600846006851
:1017700040F08070086000BF0C48006800F0007006
:101780000028F9D00948406820F003000749486064
:101790000846406840F00200486000BF03484068C7
:1017A00000F00C000828F9D10CBD00000010024028
:1017B000002002404FF0E020006900F4803020B1AA
:1017C00002480068401C014908607047380000204A
:1017D00010B51348006840F0010011490860084640
:1017E0004068104908400E494860084600680E49A4
:1017F00008400B4908600846006820F48020086013
:101800000846406820F4FE0048604FF41F008860DE
:10181000FFF75BFF4FF000600449086010BD000057
:10182000001002400000FFF8FFFFF6FE08ED00E0A8
:1018300021B1028842F08002028004E002884FF663
:101840007F731A400280704721B1028842F0010282
:10185000028004E002884FF6FE731A40028070474F
:1018600031B1B0F8442042F40042A0F8442005E031
:10187000B0F84420C2F30E02A0F8442070470000E4
:1018800070B5002400220023058C4FF6FE7635400B
:101890000584028C8388048B4FF68F752C40B51E0F
:1018A0002C400D882C43751E2A400D892A434D88F3
:1018B0002A43144DA8420BD0134DA84208D0134D13
:1018C000A84205D0124DA84202D0124DA84213D111
:1018D0004FF6F7752A404D892A434FF6FB752A408B
:1018E0008D882A434FF6FF652B404FF6FF552B405E
:1018F0008D892B43CD892B4383800483CD888586B6
:10190000028470BD002C01400034014000400140C1
:1019100000440140004801400A460021018B4FF677
:10192000F7731940114301837047000070B500241C
:1019300000220023058C4FF6EF7635400584028C9B
:101940008388048B48F6FF752C404FF6FF452C40EA
:101950000D884FF6FF7606EA05252C434FF6DF7516
:101960002A400D8906EA05152A434D8806EA051521
:101970002A43154DA84202D0144DA8421DD14FF65E
:101980007F752A404D894FF6FF7606EA05152A43F2
:101990004FF6BF752A408D8806EA05152A434FF693
:1019A000FF352B404FF2FF752B408D8906EA8505E8
:1019B0002B43CD8906EA85052B4383800483CD889C
:1019C0000587028470BD0000002C014000340140F6
:1019D0000A460021018B4FF2FF7319404FF6FF7347
:1019E00003EA0223194301837047000070B5002405
:1019F00000220023058C4FF6FF6635400584028CDB
:101A00008388848B4FF68F752C404FF6FC752C40E5
:101A10000D882C434FF6FF552A400D894FF6FF766F
:101A200006EA05252A434D8806EA05252A43154D71
:101A3000A84202D0144DA8421DD14FF2FF752A4092
:101A40004D894FF6FF7606EA05252A434FF6FF3506
:101A50002A408D8806EA05252A434EF6FF752B405D
:101A60004DF6FF752B408D8906EA05152B43CD8970
:101A700006EA05152B4383808483CD8885870284FD
:101A800070BD0000002C0140003401400A460021D6
:101A9000818B4FF6F7731940114381837047000023
:101AA00070B5002200230024058C4EF6FF763540E9
:101AB0000584038C8488828B48F6FF752A404FF694
:101AC000FF452A400D884FF6FF7606EA05252A4392
:101AD0004DF6FF752B400D8906EA05352B434D88E1
:101AE00006EA05352B430B4DA84202D00A4DA84209
:101AF00008D14BF6FF752C408D894FF6FF7606EA2C
:101B000085152C4384808283CD88A0F840500384BF
:101B100070BD0000002C0140003401400A46002145
:101B2000818B4FF2FF7319404FF6FF7303EA0223D4
:101B30001943818370478186704701877047818789
:101B40007047A0F840107047002202881D4B984251
:101B50000ED01D4B98420BD0B0F1804F08D01B4BDC
:101B6000984205D01A4B984202D01A4B984204D1A1
:101B70004FF68F731A404B881A43174B984207D081
:101B8000164B984204D04FF6FF431A40CB881A43B5
:101B900002808B8883850B8803850A4B98420BD083
:101BA000094B984208D00E4B984205D00D4B9842F5
:101BB00002D00D4B984201D10B7A03860123838218
:101BC00070470000002C0140003401400004004038
:101BD00000080040000C00400010004000140040CD
:101BE00000400140004401400048014021B1828989
:101BF00042F40052828104E082894DF6FF731A405C
:101C00008281704702460020B1F5007F00D100BFFD
:101C100013880B400BB1012000E00020704700004A
:101C20002DE9F04786B005460E460024A24600BFC7
:101C3000A1460027B08900B100BF2F462C8A4CF680
:101C4000FF700440F08804432C82AC894EF6F310F8
:101C50000440B08831890843718908430443AC814A
:101C6000AC8A4FF6FF400440B0890443AC8201A81F
:101C7000FFF7C0FC1F48874202D1DDF810A001E049
:101C8000DDF80CA0A88900F4004040B10AEBCA00BE
:101C900000EB0A1031684900B0FBF1F807E00AEBED
:101CA000CA0000EB0A1031688900B0FBF1F864202B
:101CB000B8FBF0F004012009642101FB1089A88918
:101CC00000F4004040B1322000EBC900B0FBF1F05D
:101CD00000F00700044308E0322000EB0910642103
:101CE000B0FBF1F000F00F0004432C8106B0BDE81A
:101CF000F087000000380140C1F30802828070477D
:101D000000BFFEE737B514460846064B6A46214633
:101D100000F0DCF804466946002000F05AFC20463A
:101D20003EBD0000D325000802E008C8121F08C10C
:101D3000002AFAD170477047002001E001C1121F4C
:101D4000002AFBD1704700002DE9FF5F82B000211F
:101D5000DDE90430020DDDF840B0034318D044F64D
:101D60001050A2F2FF3242431514119801281FD0DF
:101D7000A5EB0B00401C5FEA000A4FF000064E4F37
:101D8000DFF83891B046504615D5CAF1000413E08B
:101D9000119801244AA3012801D16FEA0B0102988E
:101DA000119AC0E90031C0E9024206B0BDE8F09FD7
:101DB000CBF10000DFE704460021404A491842EB1E
:101DC0000450CDE9001012E0E00707D032463B4650
:101DD00040464946FEF7D8FA8046894632463B4699
:101DE00010461946FEF7D0FA06460F466410002C3E
:101DF000EAD1DDE90401DDE90023BAF1000F06DADA
:101E0000FEF7C2FA42464B46FEF7BEFA05E0FEF781
:101E10002DFB42464B46FEF729FB04460E460022A8
:101E2000284BFEF7FBFB03D84FF0FF30014607E0DD
:101E30000022254B20463146FEF7FFF9FEF7C2FB94
:101E4000102409E0002C0ADB0A220023FEF73AFCEA
:101E5000039B30321A55641E50EA0102F2D1641C11
:101E6000039AC4F111031444119A012A03D00122E8
:101E700008430DD10AE0084304D000204FF0110BB5
:101E8000119072E7A3EB0B056D1E0DE05B4504DDC1
:101E90004FF0000205F1010504E003DA4FF0000203
:101EA000A5F10105002AECD002981199C0E9023190
:101EB000C0E9004579E70000000014400000F03F51
:101EC000300000000000F0430000E03F2DE9FF4F2C
:101ED00095B09A46884606460025EEE1252877D13A
:101EE00000242746F94A0121039400E0044316F830
:101EF000013F203B01FA03F01042F7D130782A2845
:101F000011D06FF02F033078A0F13002092A16D8D3
:101F1000039A44F0020402EB820203EB42021044F3
:101F2000761C0390EFE758F8042B0392002A03DA9B
:101F3000504244F40054039044F00204761C30787C
:101F40002E2816D116F8010F44F004042A280DD0CB
:101F50006FF02F023078A0F13003092B09D807EB7E
:101F6000870302EB4303C718761CF3E758F8047B9A
:101F7000761C30786C280FD006DC4C2817D06828E7
:101F80000DD06A2814D104E0742810D07A280FD11B
:101F90000DE044F400140AE044F4801401E044F439
:101FA00040147278824202D104F58014761C761CAB
:101FB000307866280BD013DC582877D009DC00284D
:101FC00075D04528F6D04628F4D047281AD193E199
:101FD00018E0632835D0642879D0652812D18BE1C8
:101FE000702873D008DC6728F1D069286FD06E287C
:101FF0000DD06F2806D1ACE073282CD0752874D092
:10200000782853D05246179990476D1C54E1C4F379
:102010000250022809D003280DD0D8F80010042857
:102020000DD00D6008F1040846E1D8F80010EA1759
:10203000C1E90052F6E7D8F800100D80F2E70D7004
:10204000F0E718F8041B8DF8001000208DF801004F
:10205000EB46012003E058F804BB4FF0FF30610766
:102060004FF0000102D40DE009F101018946B942A7
:102070000FDA8145F8DB1BF809100029F4D108E0DC
:1020800009F1010189468142FADB1BF80910002998
:10209000F6D103985346A0EB090721463846179A14
:1020A00000F080FA284400EB090507E044E008E16D
:1020B0000DE01BF8010B524617999047B9F1010941
:1020C000F7D2534621463846179AF2E039E00A2102
:1020D000C4F302524FF0000B0091022A06D058F8C8
:1020E000040BC117032A09D00AE023E008F1070016
:1020F00020F00702F2E80201904605E000B2C117A5
:10210000042A01D140B2C117002906DA0A4600218B
:10211000404261EB02012D2202E0220504D52B2270
:102120008DF80420012203E0E20701D02022F7E726
:10213000914657E00A2100E010214FF0000B00917A
:102140000BE010214FF0000B44F00404082700912D
:1021500003E008204FF0000B0090C4F30252022A63
:1021600005D058F8040B0021032A08D008E008F134
:10217000070020F00702F2E80201904603E080B277
:10218000042A00D1C0B24FF0000922072AD53278C4
:10219000702A07D0DDF800C08CF0100C5CEA0B0C44
:1021A00005D00EE040228DF80420012208E050EA1C
:1021B000010306D030238DF804308DF8052002226B
:1021C0009146009B83F0080353EA0B030AD150EABF
:1021D000010201D1620705D530228DF804204FF0AD
:1021E00001097F1E3278582A04D039A20C920CAA19
:1021F00002920BE03BA2F9E75B46009AFEF762FA17
:102200000C9B9B5C029A521E0292137050EA0102D0
:10221000F2D1029804A9081A00F1200B600702D538
:1022200024F4803400E001275F4502DDA7EB0B00BA
:1022300000E0002000EB0B01009003984944401A95
:102240000390E00306D453462146179A039800F002
:10225000A9F90544002706E001A85246C05D179978
:1022600090476D1C7F1C4F45F6DBE0030CD55346B1
:102270002146179A039800F095F9054404E03020B0
:102280005246179990476D1C0099481E00900029EE
:10229000F5DC08E00298029952460078491C029148
:1022A000179990476D1CBBF10001ABF1010BF1DCFC
:1022B0005BE100F065F90544761C307800287FF476
:1022C0000DAE19B02846BDE8F08F000009280100C6
:1022D000303132333435363738396162636465669C
:1022E000000000003031323334353637383941425E
:1022F0004344454600000000600700D4062708F16B
:10230000070020F00700F0E80223804603F0004CAD
:102310005FEA0C0001D097A009E0200501D596A046
:1023200005E0E00701D095A001E0AFF24C0013906A
:10233000307823F0004365280CD006DC452809D00E
:1023400046281DD047287FD13BE0662818D0672853
:102350007AD136E00021112F01DB112000E0781C3A
:10236000CDE9000104A90CA8FFF7EEFCDDE90D01A1
:102370000C9A4FF0000B07F10109109200914EE00A
:102380004FF000400097CDE9011004A90CA8FFF719
:10239000DBFCDDE90D020C9B0F994FF0000B914621
:1023A0001093009211B9791C00EB0109B7EB0900F9
:1023B00003D4C0F1FF3B07F10109A9EB070001902D
:1023C00042E0012F00DA01270021112F01DD112049
:1023D00000E03846CDE9000104A90CA8FFF7B4FCE1
:1023E000DDE90D010C9A00914FF0000BB9461092F7
:1023F00021070FD4009A4A4503DA914601E0A9F17A
:102400000109B9F1010F05DD109AA9F10101515C33
:102410003029F4D0B84202DA10F1040F03DA0121B6
:10242000CDE9011010E0002803DC8344A9EB000192
:1024300002E0411C494500DD8946A0EB0B00401C31
:1024400001904FF000400290200705D401984845C4
:1024500002DB4FF0FF30019000208DF84B00029816
:102460000DF14B07B0F1004F25D002200C902B202E
:102470000D90029800280CDA404202902D200D9019
:1024800007E00A210298FEF707F93031029007F8B9
:10249000011D0C99481E0C900029F2DC02980028BE
:1024A000EFD1791E0D980870307800F0200040F0D0
:1024B000450007F8020D11A8C01BC01D029013981B
:1024C000007800B1012000EB0901019801EBE071F7
:1024D000029801440398401A401E0390E00306D47A
:1024E00053462146179A039800F05CF80544139868
:1024F000007818B15246179990476D1CE00323D518
:1025000053462146179A039800F04CF805441BE007
:10251000BBF1000F07DB0098584504DD10981799B0
:1025200010F80B0001E017993020524690470198AF
:102530000BF1010B401E05F10105019004D12E2085
:102540005246179990476D1CB9F10001A9F1010994
:10255000DEDC05E017F8010B5246179990476D1C19
:102560000299481E02900029F4DC53462146179A2E
:1025700003989EE62D0000002B00000020000000C4
:102580002DE9F041044600251E461746880404D470
:1025900005E039462020B0476D1C641EF9D5284659
:1025A000BDE8F0812DE9F041044600251E46904625
:1025B000C80301D5302700E02027880404D505E0B2
:1025C00041463846B0476D1C641EF9D52846BDE823
:1025D000F0810A68531C0B601070704770B5044698
:1025E0000E460B48056814212046FDF7A4FDE66061
:1025F000002020610648006810B90548046070BDDD
:1026000000E02D6928690028FBD12C6100BFF6E7A6
:10261000440000202DE9F04104460D4616461F46B1
:10262000258070196080A78000F066F8A060002007
:10263000A0711DB9E16888470020E071BDE8F08114
:1026400010B51C48046832E0208800B92EE000F084
:1026500053F8A168401A2188884206D2E07920BB4D
:102660000120E071E16888471FE000F045F8A168AB
:10267000401A6188884206D2E079B0B10020E0714A
:10268000E168884711E000F037F8A060A08860B1E9
:10269000A079401CC0B2A071A188884205DB00204F
:1026A0002080E16888470020E07100BF2469002C89
:1026B000CAD110BD4400002010B502210148FEF728
:1026C00075FE10BD0008014010B501210148FEF75C
:1026D0006DFE10BD0008014010B540210148FEF715
:1026E00065FE10BD000C014010B580210148FEF7C9
:1026F0005DFE10BD000C014010B5FEF761FE10BD7F
:102700002DE9F04104460D4616460027B84635B17E
:10271000012D08D0022D0AD0032D11D10BE000208D
:10272000804607460CE001274FF0000808E06427C8
:102730004FF4617804E04FF4FA7740F6C41800BF14
:1027400000BF04EB8401054A02EB81003346424698
:102750003946FFF75FFFBDE8F0810000D800002098
:1027600008B501211020FEF735FF4FF40050ADF8F9
:10277000000010208DF8030002208DF80200694649
:102780000648FEF73FFD06490648FFF727FF0022EF
:1027900002211046FFF7B4FF08BD00000010014001
:1027A00015280008D80000204FF4E060FEF7D2FEA4
:1027B00000F004F801E000F011F8FCE710B5054C5A
:1027C00003E0214608344868804703488442F8D330
:1027D00010BD00007C280008A428000810B50A4C91
:1027E0000EE0FFF789FFE1680968401AA168884296
:1027F00005D3FFF781FFE168086060688047103407
:1028000002488442EDD310BDBC280008EC28000823
:102810007047000030B90749C96841F40051054AC2
:10282000D16005E00349C96821F40051014AD16033
:1028300070470000001001405553415254335F4926
:102840006E69740050574D006B657900456E636F7B
:10285000646572006C65640000000000FC280008DC
:102860000000002048000000281D0008442900083E
:1028700048000020D0100000381D0008582800082B
:102880001128000838280008490D000844280008CD
:10289000410B00084C280008050B000854280008CC
:1028A0006127000858280008112800085828000847
:1028B0001128000800000000000000004428000863
:1028C00069150008D00700001400002048280008FF
:1028D000811100080A0000001C0000205428000894
:1028E000412600080A0000002000002058280008A7
:1028F0001128000800000000000000000000000097
:1029000000000000000000000000000000000000C7
:1029100000000000000000000000000000000000B7
:102920000000000001020304010203040607080975
:102930000204060800000000000000000000000083
:042940000000000093
:04000005080000ED02
:00000001FF
