:020000040800F2
:10000000481200200501000875220008B9140008F4
:10001000E91E0008090E0008B92A000800000000C7
:10002000000000000000000000000000F5240008AF
:100030000D0E000800000000DD230008E125000887
:100040001F0100081F0100081F0100081F01000810
:100050001F0100081F010008090F00081F01000808
:100060001F0100081F0100081F0100081F010008F0
:100070001F0100081F0100081F0100081F010008E0
:100080001F0100081F0100089D0A00081F01000849
:100090001F0100081F0100081F010008B50F00081C
:1000A0001F0100081F0100081F0100081F010008B0
:1000B0001F0100081F0100081F0100081F010008A0
:1000C0001F0100081F0100081F0100081F01000890
:1000D0001F0100081F0100081F0100081F01000880
:1000E0001F0100081F0100081F010008DFF810D0E1
:1000F00000F0AAFC004800474D3A0008AFF300802A
:10010000481200200648804706480047FEE7FEE701
:10011000FEE7FEE7FEE7FEE7FEE7FEE7FEE7FEE7B7
:10012000FD250008ED000008D2B201E000F8012B27
:10013000491EFBD270470022F6E710B513460A4667
:1001400004461946FFF7F0FF204610BD421C10F888
:10015000011B0029FBD1801A7047F0B480EA01022C
:10016000D40F4200B2EB410F02D2024608461146BC
:100170004A0042D0C30DDDB2C1F3C752AD1A202DE3
:1001800035DAC1F3160141F4000204B15242C5F15F
:10019000200602FA06F12A411044B3EBD05F23D0C7
:1001A000C4B1012DA0EBC35009DCF0BC4FF00042FC
:1001B00002EAC352DBB200F5000000F050BB400081
:1001C00000F1807000EBC350A0F1807040EAD17064
:1001D000490009E0490841EAC071A0EBC35000F5AD
:1001E0000000400800EBC350F0BC00F02FBB6142A0
:1001F000012202EB4101001BF6E7F0BC704781F0E1
:100200000041AAE780F00040A7E780EA010210B5AC
:1002100002F00043400022D04A001FD0010E01EB43
:100220001261C0F35600C2F3560240F4000042F4DB
:100230000002A0FB022000047F39140400D0401CFF
:1002400050EA124001D44000491EC2B20C0604EB31
:10025000D010401C4008802A02D003E0002010BDCE
:1002600020F00100002900DA0020184310BD30B44E
:1002700080EA010202F0004530F0004221F0004027
:1002800013D090B1C30DD40DC2F31601C0F3160004
:10029000E41A41F4000140F400027D34914201D39C
:1002A000641C00E04900002C02DA30BC00207047DA
:1002B0004FF400000023914201D3891A0343400800
:1002C0004FEA4101F7D151B1914202D14FF00041C3
:1002D00005E002D24FF0010101E06FF0010103EBF4
:1002E000C450284430BC00F0B1BA2DE9FE4F80461E
:1002F00081EA0300C00F0C46009021F0004123F07A
:100300000045B8EB0200A94105D24046214690467F
:100310001C460B46024623F00040104347D0270DF1
:10032000C7F30A00C3F30A510290401A0190402813
:100330006BDAC3F3130040F4801B0098924620B19F
:100340000023D2EB030A63EB0B0B01985946C0F173
:100350004002504600F049FA06460D4650465946BE
:10036000019A00F061FA10EB08006141002487EA6D
:10037000115284EAE7731A4340D0009A62B3019A9B
:10038000012A4FEA075215DC001B61EB02014FF016
:10039000004202EA0752CDE90042001C41F58011FB
:1003A00032462B4600F098FA03B0BDE8F08F404685
:1003B0002146F9E7001B61EB0201001C41F58013A7
:1003C00000185B412018A2F5001747EB030140EA33
:1003D000D570B6196D4111E06D084FEA360645EA51
:1003E000C0754FEA0752001B61EB0201001C41F58A
:1003F000801149084FEA30000019514132462B461E
:1004000003B0BDE8F04F00F058BA00980122400058
:100410000023D0EB020263EBE073009821464FEA21
:10042000E074B8EB000061EB0401E9E783F00043FE
:100430005BE781F0004158E72DE9FE4F81EA0304B4
:1004400004F0004421F0004100944FF0000B23F031
:10045000004350EA01045ED052EA03045BD0C3F3C8
:100460000A54C1F30A552C44A4F2F3340194A0FBBE
:100470000254C1F3130141F48011C3F3130343F495
:10048000801301FB024400FB034E840A970A44EAEE
:10049000815447EA8357A4FB076802958D0A05FB40
:1004A00007854FEA932C04FB0C542705029D4FEA65
:1004B000065847EA1637B5EB08056EEB070C870EB2
:1004C000920E47EA811742EA8312A7FB0201B6EBBC
:1004D0000B0164EB00042B0D43EA0C335E1844EB74
:1004E0001C50DA465146E7FB0201C5F313044FEAFC
:1004F0000B3343EA14534FEA0432019C43EA0603E8
:10050000A4F10C040294009CCDE900B400F0E4F9DD
:1005100003B0BDE8F08F00200146F9E72DE9F04D6A
:1005200081EA030404F0004B21F0004514464FF02B
:10053000000A23F0004150EA050220D054EA0102EB
:100540001DD0C5F30A570246C5F31303C1F31300C8
:10055000C1F30A5640F4801543F48013A7EB060854
:10056000101BD64608F2FD3873EB050002D308F1E4
:10057000010801E092185B41B8F1000F03DA002096
:100580000146BDE8F08D00204FF4801106468446F8
:100590000EE0171B73EB050705D3121B63EB050376
:1005A00006434CEA010C49084FEA300092185B41BF
:1005B00050EA0107EDD152EA030012D082EA0400AA
:1005C00083EA0501084305D0101BAB4106D2012286
:1005D000002306E000224FF0004302E06FF001022A
:1005E00053101AEB06004CEB085110EB0A0041EBDC
:1005F0000B01BDE8F04D00F060B9C10F80EAE0707A
:100600000844CA079623002100F029B99623002246
:10061000114600F024B90EB540F233410291002199
:10062000CDE900110A460B4600F056F903B000BDB3
:1006300000F0004220F00040C10DC0F3160040F46D
:1006400000007F2901DA00207047962903DCC1F100
:100650009601C84001E096398840002AF4D0404213
:10066000704720F00040C10DC0F3160040F40000B8
:100670007F2901DA00207047962903DCC1F1960139
:10068000C8407047963988407047C1F30A52C1F399
:10069000130140F2FF3341F480119A4202DA002044
:1006A0000146704740F233439A42A2F2334202DCE1
:1006B000524200F0A9B800F098B800F0004230F0C3
:1006C00000400AD0C10D01F56071C0F3160042EA86
:1006D0000151C2084007114370470020014670478E
:1006E00030B5041E71F1000404DB4FF000444042B9
:1006F00064EB0101141E73F1000405DB1C464FF08E
:100700000043524263EB0403994208BF904230BD5C
:1007100001F0004330B421F0004150EA010206D05C
:100720000A0DA2F56072C1F31301002A02DC30BC8D
:1007300000207047440F44EAC104C100E01830BCF7
:1007400000EBC25000F082B8002801DBC0F100408D
:10075000002901DBC1F100418842704730B50B46EA
:10076000014600202022012409E021FA02F59D42E1
:1007700005D303FA02F5491B04FA02F52844151EB5
:10078000A2F10102F1DC30BD2DE9F05F0546002049
:1007900092469B4688460646814640241BE02846F2
:1007A00041464746224600F02FF853465A46C01AA3
:1007B000914110D311461846224600F016F82D1A22
:1007C00067EB01084F4622460120002100F00DF89A
:1007D00017EB00094E41201EA4F10104DFDC48465E
:1007E00031462A464346BDE8F09F202A04DB203AE2
:1007F00000FA02F1002070479140C2F1200320FA74
:1008000003F3194390407047202A04DB203A21FA71
:1008100002F00021704721FA02F3D040C2F1200219
:100820009140084319467047202A06DBCB17203A2F
:1008300041FA02F043EAE07306E041FA02F3D040E5
:10084000C2F1200291400843194670470029A8BF11
:100850007047401C490008BF20F00100704710B4E9
:10086000B0FA80FC00FA0CF050EA010404BF10BC9E
:10087000704749B1CCF1200421FA04F411FA0CF1CB
:1008800018BF012121430843A3EB0C01CB1D4FEA04
:1008900000614FEA102042BF002010BC704700EBFF
:1008A000C35010440029A4BF10BC7047401C49002D
:1008B00008BF20F0010010BC704710B5141E73F182
:1008C000000408DA401C41F1000192185B411A4310
:1008D00001D120F0010010BD2DE9F04D92469B465C
:1008E00011B1B1FA81F202E0B0FA80F22032904602
:1008F000FFF77BFF04460F4640EA0A0041EA0B017E
:1009000053465A46084313D0114653EA010019D002
:10091000C8F140025046FFF777FF05460E465046A5
:1009200059464246FFF761FF084305D0012004E025
:1009300020463946BDE8F08D0020054346EAE076C2
:100940002C4337430A986305E40AA0EB0800002211
:10095000FD0A44EA47540A3002D500200146E9E77F
:10096000010510196941DDE9084500196941BDE833
:10097000F04DA2E72DE9F04D00231A461B1A8A41DB
:1009800003DB00200146BDE8F08DC1F30A52C1F33C
:10099000130141F480154FF0000BD10702D100186C
:1009A0006D41521E0027044640F2FF11384601EB0C
:1009B000620A3E468046024600204FF48011FFF74F
:1009C00023FFC2197141BB1846EB0100B4EB030CC5
:1009D00075EB000C04D3E41A65EB000517460E46D0
:1009E000241908F101006D4180463428E3DDF9192E
:1009F00046EB0600091BA84103D24FF0FF32134615
:100A000001E0002213461BEB070046EB0A51BDE84C
:100A1000F04DFFF752BF000030B5041E71F1000425
:100A200004DB4FF00044404264EB0101141E73F1FB
:100A3000000405DB1C464FF00043524263EB040305
:100A40008B4208BF824230BD064C074D06E0E0688D
:100A500040F0010394E8070098471034AC42F6D305
:100A6000FFF748FB103C0008303C000870B521F04F
:100A7000004303430CD0C1F30A550024D5EB040511
:100A800064EB0403D617AD1AB34102DB0020014624
:100A900070BD201841EB025170BD00002DE9FE4FE2
:100AA0000421194800F03DF801282AD104211648F4
:100AB00000F034F81421144800F03CF80290029839
:100AC000FFF7A4FD11490090FFF7D1FB0190FFF75C
:100AD000F4FD80464FF066320D4BFFF7ADFC064645
:100AE0004FF040420B4BFFF7A7FC04464FF0663235
:100AF000074BFFF713FD8246FFF70AFE0649086021
:100B000000BFBDE8FE8F00000024014000F07F45DB
:100B100066660A40CCCC204000000020CA43026038
:100B200070470246002013680B400BB1012000E023
:100B30000020704708B5024600200090009201F1A5
:100B40002800009B184400900098006880B208BDFF
:100B500010B50649064800F081FD0449054800F03B
:100B60007DFD00F0DFFA00F01BFB10BD6F12833A31
:100B7000F40000203C01002000B589B0002008905E
:100B80000121084601F03CFC0121042001F038FC61
:100B90000121082001F034FC1820ADF820000020CD
:100BA0008DF8230002208DF8220008A92E4800F0BD
:100BB0005DFBC020ADF8200018208DF82300022036
:100BC0008DF8220008A9284800F050FB0320ADF85A
:100BD000200008A9254800F049FB0121022001F06E
:100BE000FFFB0020059006900790ADF8160040F23C
:100BF000E730ADF818000020ADF814008DF81C00A7
:100C000005A91B4801F07CFE6020ADF8040001201E
:100C1000ADF806000020ADF80800ADF80A00ADF808
:100C20000C00ADF80E004FF48070ADF810000020FD
:100C3000ADF8120001A90E4801F02CFD01A90C48E5
:100C400001F074FD01A90A4801F0C2FD01A908489C
:100C500001F00EFE0121064801F00CFD01210448BF
:100C600001F0FCFC09B000BD00080140000C01408F
:100C7000000400402DE9F047044600212046FFF71C
:100C800063FD02D84FF07E5500E0174D204620F05E
:100C900000410C4615492046FFF7B4FA8146134936
:100CA000FFF7E5FA80461249FFF7AFFA0746FFF76C
:100CB000D8FC86B200212846FFF746FD09D840F24D
:100CC000E7310C4801F014FE31460A4801F012FEEB
:100CD00008E040F2E731074801F00CFE31460548D4
:100CE00001F006FEBDE8F087000080BF0000C842AA
:100CF00000C07944000400402DE9F047044600217B
:100D00002046FFF721FD02D84FF07E5500E0174D39
:100D1000204620F000410C4615492046FFF772FAA4
:100D200081461349FFF7A3FA80461249FFF76DFA8F
:100D30000746FFF796FC86B200212846FFF704FD20
:100D400009D840F2E7310C4801F0D0FD31460A489D
:100D500001F0D2FD08E040F2E731074801F0CCFD98
:100D60003146054801F0C2FDBDE8F087000080BFB4
:100D70000000C84200C079440004004000B585B0BE
:100D80000121082001F03CFB002004904FF480601A
:100D9000ADF8100018208DF8130002208DF8120015
:100DA00004A9174800F062FA4FF40060ADF8100093
:100DB00048208DF8130004A9114800F057FA0121CA
:100DC000880401F00DFB0020009001900290039038
:100DD0004FF4612000900C20ADF80A000020ADF81F
:100DE0000800ADF80600ADF804006946054801F0BA
:100DF000F3FD0121034801F0D5FD05B000BD000061
:100E0000000C01400048004000BFFEE770470000B2
:100E100070B5044600F00EF8054800680519002674
:100E200000BF034800680021401BB141F9D370BDE9
:100E3000800000202DE9F04186B02E48007800287F
:100E400055D101202B490870142101A8FFF773F92F
:100E50004FF0E020006920F001004FF0E021086130
:100E600000202549086001A801F0DAFA4FF0E020DF
:100E7000006940F002004FF0E021086100211F48A6
:100E8000C1774FF47A710298B0FBF1F4B4F1807F2E
:100E900009D3E4084FF0E020006920F004004FF08F
:100EA000E021086107E04FF0E020006940F0040015
:100EB0004FF0E0210861601E4FF0E02148610846D4
:100EC000006940F001000861496921F07F41481C38
:100ED000FFF7A1FB07463A460B4600200849FFF7FB
:100EE0001DFB0546FFF714FC0649086000BF06B06D
:100EF000BDE8F081840000208000002000ED00E0CB
:100F000000408F408800002070B5012000F0AEF84E
:100F1000234801684068234A1160506000F08CFA51
:100F20001F4A1060516001211F4800F073FA044607
:100F300002211D4800F06EFA0546012C00D115B1C2
:100F4000BCB9012D15D11948036840685A1C40F1FD
:100F5000000016490A604860154890F90000002812
:100F600003DA02201249087018E0012010490870C5
:100F700014E00E48036840685A1E60F100000B49F7
:100F80000A6048600A4890F90000002803DDFE204E
:100F90000749087002E0FF200549087070BD000095
:100FA00048000020500000200008014028000020D8
:100FB0003100002070B5402000F05EF8012849D1D2
:100FC000402000F053F8244801684068234A11602B
:100FD000506000F031FA204A1060516040212048F2
:100FE00000F018FA044680211D4800F013FA054667
:100FF000012C00D115B1BCB9012D15D119480268D9
:101000004068521E60F1000016490A6048601648A8
:1010100090F90000002803DDFE201349087018E055
:10102000FF201149087014E00E4802684068521C05
:1010300040F100000B490A6048600B4890F900003D
:10104000002803DA02200849087002E0012006495E
:10105000087000BF70BD0000380000204000002074
:10106000000C0140200000203000002001490860F1
:10107000704700001404014001460020034A126832
:101080000A400AB1012000E000207047140401402A
:10109000002123498279002A3AD00A46126803685F
:1010A0009A430B461A600A1D126803689A430B1D87
:1010B0001A60027911440A6803681A430A60184AE0
:1010C0000832126803689A43154B08331A601A1DD8
:1010D000126803689A43124B0C331A604279102A43
:1010E0000ED11A1F126803681A430D4B08331A6099
:1010F0001A1D126803681A43094B0C331A600DE07D
:101100000749427911440A6803681A430A6005E0F6
:10111000027911440A6803689A430A607047000024
:10112000000401401FB50121082001F069F90020E9
:101130000390C020ADF80C0048208DF80F0003A9E3
:10114000164800F093F80121084601F059F90621EC
:10115000012000F06BF800200190029040200190E7
:1011600001208DF80A0000208DF8080010208DF86D
:10117000090001A8FFF78CFF0020009017208DF8D0
:10118000000001208DF8030000208DF801008DF88B
:101190000200684601F070F81FBD0000000C01401D
:1011A0001FB50121084601F02BF901211D4800F06F
:1011B000E9F80121042001F023F900200390032025
:1011C000ADF80C0048208DF80F0003A9164800F078
:1011D0004DF80121084601F013F90021084600F0FE
:1011E00025F8002001900290012001908DF80A005E
:1011F00000208DF8080010208DF8090001A8FFF7E5
:1012000047FF0020009006208DF8000001208DF897
:10121000030000208DF801008DF80200684601F0FF
:101220002BF81FBD000230000008014030B500223D
:101230008B071C0F0F2303FA04F20B4B8C1053F88F
:1012400024309343084C8D1044F8253023468C10ED
:1012500053F824308C07240F00FA04F42343024C83
:101260008D1044F8253030BD080001402DE9F041D3
:10127000024600250026002000230024002791F8C4
:1012800003C00CF00F0591F803C00CF0100CBCF17A
:10129000000F03D091F802C04CEA050591F800C098
:1012A000BCF1000F31D0146800202BE04FF0010C8E
:1012B0000CFA00F3B1F800C00CEA03069E4220D1FC
:1012C00083004FF00F0C0CFA03F7BC4305FA03FC44
:1012D0004CEA040491F803C0BCF1280F06D14FF08A
:1012E000010C0CFA00FCC2F814C00AE091F803C02B
:1012F000BCF1480F05D14FF0010C0CFA00FCC2F80C
:1013000010C0401C0828D1D31460B1F800C0BCF153
:10131000FF0F34DD546800202EE000F1080C4FF080
:10132000010808FA0CF3B1F800C00CEA03069E426B
:1013300021D183004FF00F0C0CFA03F7BC4305FAE0
:1013400003FC4CEA040491F803C0BCF1280F05D15A
:1013500000F1080C08FA0CF8C2F8148091F803C0E8
:10136000BCF1480F07D100F1080C4FF0010808FA52
:101370000CF8C2F81080401C0828CED35460BDE899
:10138000F0810000F0B50A4600230024002100256A
:1013900000F00046B6F1004F02D11D4EF16901E0A8
:1013A0001B4E7168C0F3034583B200F44016B6F5D6
:1013B000401F08D121F07061154E766826F07066E6
:1013C000134F7E6012E000F48016B6F5801F06D140
:1013D000032606FA05F4A14341F0706106E0460DCC
:1013E000360103FA06F6B14341F0706122B1460DB1
:1013F000360103FA06F6314300F00046B6F1004F1D
:1014000002D1034EF16101E0014E7160F0BD0000B8
:10141000000001400246002093680B400BB1012000
:1014200000E000207047000010B5FFF703FD014801
:10143000006810BD800000202DE9F041FFF7FAFCA4
:1014400072B610E01A48046800254FF0E020866963
:10145000006900F4803028B115480068401C144928
:10146000086000E000E0EDE700BF62B64FF47A727A
:1014700000272046A0FB021C05FB02C204FB072537
:101480000C464FF0E0214969881BFFF7BFF8804602
:10149000084801684046FEF7B8FE0746FFF7E1F846
:1014A000041945F1000520462946BDE8F0810000F9
:1014B000800000208800002000BFFEE721B10288E4
:1014C00042F48062028004E002884FF6FF331A4043
:1014D00002807047002221F07F42D343838270470D
:1014E00021B1028842F48072028004E002884FF643
:1014F000FF631A400280704721B1028842F40072F3
:10150000028004E002884FF6FF531A4002807047C1
:101510000CB50246002000230193009300920B0FAC
:10152000019321F07F41019B1BB1009B1433009379
:1015300003E0090C009B18330093009B1B680B40D1
:101540000BB1012000E000200CBD00002DE9F043AC
:1015500085B004460D460026B1460427DFF8CC804E
:10156000A6884FF6C0700640684600F059FFDDF8C7
:1015700008802F48B8FBF0F01FFA80F946EA090608
:10158000A68020884FF6FE71084020800026294959
:10159000286888420CD828684000B8FBF0F087B271
:1015A000042F00DA04273E4309F10100208427E0DC
:1015B000E8884BF6FF71884206D1286800EB4000AE
:1015C000B8FBF0F087B209E0286800EBC00101EB3E
:1015D0000010B8FBF0F087B247F48047C7F30B0068
:1015E00008B947F0010747F4004006434FF49670EE
:1015F00009FB00F04FF47A7190FBF1F0401C20845D
:10160000A683208840F00100208026884FF6F53020
:101610000640A8886989084306432680A889298945
:101620000843208105B0BDE8F083000000127A0075
:1016300040420F00A086010008B50246002000903D
:1016400000920098084400900098008808BD014668
:10165000088AC0B270470182704700000022026011
:1016600042600E4A82600023C36003610C4B4361F9
:101670004FF07E528261C1610023036213464362D0
:1016800082620023C362074A0263436383634FF0AD
:101690007E53C363044A0264416470470000C84239
:1016A00000007A44CDCCCC3D000020412DE9F04F24
:1016B00095B00446204600F035F9B4F90000FEF775
:1016C0009CFF07468C4801683846FEF79EFD06469B
:1016D000B4F90200FEF791FF0746874801683846D3
:1016E000FEF793FD8146B4F90400FEF786FF074636
:1016F000814801683846FEF788FD8246B4F9060045
:10170000FEF77BFF80467D4801684046FEF77DFD81
:1017100007467B4801683846FEF777FD1390B4F919
:101720000800FEF76AFF8046744801684046FEF7ED
:101730006CFD0746724801683846FEF766FD129058
:10174000B4F90A00FEF759FF80466C48016840462C
:10175000FEF75BFD07466A4801683846FEF755FD0F
:10176000119051465046FEF750FD49460C904846B0
:10177000FEF74BFD31460B903046FEF746FD0A90D2
:101780000B99FEF7EAFC83460C99FEF7E6FC0D90F8
:10179000FEF793FF074602F0B1F9CDE90E01FEF71F
:1017A000B7FF10901098FEF788FF07464FF03332CE
:1017B000544BFEF795FF01D2534D00E0534D544872
:1017C00012990068FEF7C9FC514908605148139905
:1017D0000068FEF7C2FC4F49086029464FF07E5072
:1017E000FEF70DFD80464A4801684046FEF70DFDB4
:1017F0000746FEF762FFCDE90C015046FEF75DFF9C
:10180000CDE902014846FEF758FFCDE90001DDE9C8
:10181000022301F04BFFCDE904012846FEF74DFFFE
:101820000746DDE90423FEF707FE4FF080423A4BFE
:10183000CDE90601FEF772FE0022384BCDE9080122
:10184000FEF7FAFDCDE90A01DDE90C23FEF74DFDB7
:10185000CDE90E01FEF75CFF606129464FF07E5036
:10186000FEF7CDFC80462B4801684046FEF7CDFCD4
:101870000746FEF722FFCDE90C015046FEF71DFF9B
:10188000074688463046FEF718FF3A464346CDE9FC
:10189000000101F00BFFCDE904012846FEF70DFF22
:1018A000CDE90201DDE90423FEF7C6FD4FF08042D9
:1018B000194BCDE90601FEF731FE0022174BCDE9A9
:1018C0000801FEF7B9FDCDE90A01DDE90C23FEF7B9
:1018D0000CFD81F00041CDE90E01FEF719FFA0617A
:1018E0000F491198FEF791FC07462169FEF735FC78
:1018F000206115B0BDE8F08FA4000020A0000020FA
:10190000900000203333F33FCDCC4C3F48E17A3F89
:10191000B8000020BC000020FB2109400080664088
:10192000E62E6542F8B504460E20534B3B22D021EB
:101930000090524800F0DAFA4F4840784E49097852
:1019400040EA012000B220804B48C0784A4989789B
:1019500040EA012000B26080474840794649097951
:1019600040EA012000B2A0804348C0794249897909
:1019700040EA012000B2A0813F48407A3E49097AFE
:1019800040EA012000B2E0803B48C07A3A49897AB7
:1019900040EA012000B220813748407B3649097B6C
:1019A00040EA012000B26081E08835490988401A88
:1019B00000B2E080208933490988401A00B22081B2
:1019C000608931490988401A00B26081B4F9000089
:1019D000FEF713FE064631462C4800F08FFC054604
:1019E000FEF726FE00B22080B4F90200FEF705FEE5
:1019F00006463146264800F081FC0546FEF718FEF3
:101A000000B26080B4F90400FEF7F7FD06463146E7
:101A1000204800F073FC0546FEF70AFE00B2A080E5
:101A2000B4F90600FEF7E9FD064631461A4800F013
:101A300065FC0546FEF7FCFD00B2E080B4F9080045
:101A4000FEF7DBFD06463146144800F057FC05461C
:101A5000FEF7EEFD00B22081B4F90A00FEF7CDFDDD
:101A6000064631460E4800F049FC0546FEF7E0FD0B
:101A700000B26081F8BD0000380200200054004030
:101A8000A8000020AA000020AC000020C001002017
:101A9000CC010020D8010020E4010020F00100204A
:101AA000FC0100202DE9F05F0446207930B10828C0
:101AB00007D0102808D018280CD108E04FF08D4529
:101AC00008E04FF08C4505E04FF08B4502E04FF009
:101AD0008A4500BF00BFE07830B1082806D0102842
:101AE00006D0182808D105E0374E05E0374E03E050
:101AF000374E01E0374E00BF00BF29464FF07E5001
:101B0000FEF7B5FB3449086031463448FEF7AFFBB9
:101B10003349086080216B2001F0E0FF6420FFF76B
:101B200077F900216B2001F0D9FF2088B0F57A7F8A
:101B300003DB4FF47A70208004E02088042801DA67
:101B4000042020802088FEF761FD83465946254801
:101B5000FEF78DFB82464FF07E51FEF750FB81462B
:101B6000FEF77FFD00F0FF084146192001F0B6FFA7
:101B70000021372001F0B2FFA179382001F0AEFF3B
:101B8000A1781A2001F0AAFFE1781B2001F0A6FF3E
:101B900021791C2001F0A2FF6179232001F09EFF32
:101BA0000027607900B14027A07900F0010008B952
:101BB00047F0080739466A2001F090FF01216B20A9
:101BC00001F08CFFBDE8F09F00000343000083425A
:101BD0003333034233338341A400002039FA8E3C6F
:101BE000A000002000007A442DE9FF5F0446002594
:101BF00000260027AB4631E0062002AB4322D0216D
:101C000000904A4800F072F99DF80800000200B206
:101C10009DF8091040EA01089DF80A00000200B290
:101C20009DF80B1040EA01099DF80C00000200B27B
:101C30009DF80D1040EA010A45444E4457443C4982
:101C40003C480068FEF7E1FA0090FEF70AFD0190BB
:101C5000FFF7DEF80BF101001FFA80FBA345CBDB99
:101C600095FBF4F000B23449088096FBF4F000B222
:101C70003249088097FBF4F000B231490880002017
:101C8000054606460746834623E02B480088A8EB16
:101C900000000FFA80F829480088A9EB00000FFA2D
:101CA00080F927480088AAEB00000FFA80FA454423
:101CB0004E4457441E491F480068FEF7A6FA00909C
:101CC000FEF7CFFC0190FFF7A3F80BF101001FFA1C
:101CD00080FBBBF1640FD8DB642395FBF3F2002A91
:101CE00001DB134600E05342022B1DDB642396FB0D
:101CF000F3F1002901DB0B4600E04B42022B13DB22
:101D0000642397FBF3F0002801DB034600E0434225
:101D1000022B09DB0BA210A1104800F067FA4FF06C
:101D2000FF3004B0BDE8F09F0020FAE70054004007
:101D300000007A4490000020A8000020AA000020A3
:101D4000AC000020536F667443616C696272617409
:101D500065206572726F72002573000000480040B4
:101D60002DE9F04F8DB02148FFF7A0FC1F49C8694D
:101D7000FEF7A3FC04460D461C494869FEF79DFC8E
:101D800006460F4619498869FEF797FC8046894642
:101D900016490869FEF791FC82468B461348B0F954
:101DA0000A001249B1F90810104AB2F906200F4B87
:101DB000B3F90430CDE90832CDE90A100B48B0F987
:101DC00002000A49B1F9001052465B46CDE900898C
:101DD000CDE90267CDE90445CDE9061004A10C4820
:101DE00000F004FA0DB0BDE8F08F000008020020FA
:101DF00025662C25662C25662C25662C25642C252D
:101E0000642C25642C25642C25642C25640A000090
:101E1000004800401CB501F089FDC820ADF8000065
:101E200006208DF8020018208DF8030008208DF898
:101E3000040000208DF8050001208DF8060068469A
:101E4000FFF730FEBDF80000FEF7E0FB0446214638
:101E50004FF07E50FEF70BFA1A4908604FF4B47049
:101E6000FEF7D6FF002405E0C820FFF7BDFE00B94D
:101E700002E0641C032CF7DB00BFBDF80020124910
:101E8000124800F06DFABDF800200F49104800F02C
:101E900067FABDF800200C490E4800F061FABDF861
:101EA00000200D490D4800F05BFABDF800200A49FA
:101EB0000B4800F055FABDF800200749094800F02A
:101EC0004FFA1CBD9000002000004042C0010020DD
:101ED000CC010020D80100200000B042E401002025
:101EE000F0010020FC01002000BFFEE72DE9F047D3
:101EF00081460F4690461D46089C14B90020BDE857
:101F0000F08700BF4FF400314846FFF701FB01287E
:101F1000F8D001214846FFF7E3FA00BF6D49484673
:101F2000FFF7F6FA0028F9D06B494846FFF7D2FAD6
:101F300007F0FE014846FFF78EFB14E06549491C97
:101F40004846FFF7E5FA012800D10DE0624948460E
:101F5000FFF7DEFA012806D101214846FFF7CCFA47
:101F60004FF0FF30CBE7E9E700BF14214846FFF709
:101F700063FB18214846FFF75FFB00BF55497F31DF
:101F80004846FFF7C5FA0028F8D041464846FFF713
:101F900062FB14E050494846FFF7BAFA012806D11F
:101FA00001214846FFF7A8FA6FF00100A7E7494969
:101FB0007F314846FFF7ACFA012800D100E0E9E79D
:101FC00000BF01214846FFF78BFA00BF4149484650
:101FD000FFF79EFA0028F9D03F494846FFF77AFA02
:101FE00047F001014846FFF736FB14E03949491C28
:101FF0004846FFF78DFA012800D10DE036494846E2
:10200000FFF786FA012806D101214846FFF774FA46
:102010004FF0FF3073E7E9E700BF012C1ED100212C
:102020004846FFF74BFA72B614214846FFF704FB07
:1020300018214846FFF700FB01214846FFF75CFAEC
:1020400062B600BF23493F314846FFF761FA0028D6
:10205000F8D04846FFF7FBFA287038E001214846DF
:10206000FFF72CFA14214846FFF7E6FA18214846F4
:10207000FFF7E2FA002611E0A01EB04200D172B6CE
:1020800000BF14493F314846FFF742FA0028F8D014
:102090004846FFF7DCFAA855701C86B2601EB042B5
:1020A000EADC00214846FFF709FA01214846FFF71C
:1020B00023FA62B600BF07493F314846FFF728FAC6
:1020C0000028F8D04846FFF7C2FA611E6854002085
:1020D00015E7000001000010000400102DE9F04198
:1020E00080460D4616461F4600BF4FF4003140465D
:1020F000FFF70EFA0128F8D001214046FFF7F0F96A
:1021000000BF38494046FFF703FA0028F9D03649A6
:102110004046FFF7DFF905F0FE014046FFF79BFA66
:1021200015E03049491C4046FFF7F2F9012800D17B
:102130000EE02D494046FFF7EBF9012807D10121B8
:102140004046FFF7D9F94FF0FF30BDE8F081E8E7EE
:1021500000BF14214046FFF76FFA18214046FFF7F1
:102160006BFA00241DE014E01F494046FFF7D0F948
:10217000012806D101214046FFF7BEF96FF00100AA
:10218000E3E718497F314046FFF7C2F9012800D143
:1021900000E0E9E700BF315D4046FFF75CFA601CF4
:1021A00084B2BC42DFDB14E00F494046FFF7B0F9D0
:1021B000012806D101214046FFF79EF96FF001008A
:1021C000C3E70849C91C4046FFF7A2F9012800D11E
:1021D00000E0E9E700BF01214046FFF78DF900204C
:1021E000B3E7000001000010000400100FB410B5A8
:1021F000A2B0044626A8019002A8019A259900F0F1
:102200005DFC0020019002A9204600F026F822B0D3
:1022100010BC5DF814FB2DE9F04107460E4614464C
:102220000CB9BDE8F08100250CE000BF80213846E4
:1022300000F0C4FB0028F9D0715D384600F038FC8E
:10224000681C85B2A542F0DB00BF4021384600F093
:10225000B5FB0028F9D000BFE3E770B505460C4692
:102260002046FDF773FF86B2324621462846FFF727
:10227000D2FF70BD7047000070B5002100230F220F
:10228000C47804B3154C246804F4E064C4F5E06435
:10229000210AC1F10403CA40447804FA03F18478A6
:1022A0001440214309010E4C0678A155047804F02E
:1022B0001F050124AC4005786D11AD0005F1E02546
:1022C000C5F8004109E0047804F01F050124AC4082
:1022D000044D0678761145F8264070BD0CED00E0FF
:1022E00000E400E080E100E002490143024A11609D
:1022F000704700000000FA050CED00E02DE9F04702
:1023000004460D46A1682068FDF727FF0746D4E97B
:102310000010FDF77AFF80462846A168FDF775FF9B
:1023200081464146FDF719FF06463946FDF79FFFF6
:1023300060606068BDE8F0872DE9F04104460D4615
:10234000164625603046FEF761F9074639464FF0DC
:102350007E50FDF78CFFA06000206060BDE8F0813A
:102360002DE9F04104460D46164629460848FDF77A
:102370004CFF804641464FF07E50FDF778FF074600
:10238000324639462046FFF7D7FFBDE8F08100000E
:10239000DB0FC94010B50E480068401C0C490860AE
:1023A00008460068032190FBF1F201FB1200084986
:1023B000086008480068FEF720F90446FEF75AFC5A
:1023C00005480068FEF719F90446FEF795FC10BDB4
:1023D00018000020100000200C00002070470000B2
:1023E00029B1064AD2690243044BDA6104E0034A88
:1023F000D2698243014BDA6170470000001002404D
:1024000029B1064A92690243044B9A6104E0034AE7
:1024100092698243014B9A617047000000100240AC
:1024200030B500210022002400232D4D6D6805F0F9
:102430000C0121B1042905D0082923D105E0294D3B
:10244000056022E0274D05601FE0254D6D6805F40D
:102450007012234D6D6805F48034022505EB92421D
:102460001CB9214D554305600BE01D4D6D6805F409
:1024700000351DB11C4D5543056002E0194D554313
:10248000056002E0174D056000BF00BF144D6D6888
:1024900005F0F0010909154D6B5C0568DD404560EC
:1024A0000F4D6D6805F4E061090A104D6B5C4568DD
:1024B000DD4085600A4D6D6805F46051C90A0B4D19
:1024C0006B5C4568DD40C560054D6D6805F44041B5
:1024D000890B074D6B5CC568B5FBF3F5056130BD35
:1024E0000010024000127A0000093D006C0000203C
:1024F0007C000020704710B500F002F810BD00000D
:102500000CB50020019000903348006840F4803002
:102510003149086000BF3048006800F40030009086
:102520000198401C0190009818B90198B0F5A06F6F
:10253000F1D12948006800F4003010B1012000906A
:1025400001E0002000900098012843D12348006852
:1025500040F01000214908600846006820F007009C
:1025600008600846006840F0020008601A484068A9
:10257000194948600846406848600846406840F489
:10258000806048600846406820F47C104860084637
:10259000406840F4E81048600846006840F08070E9
:1025A000086000BF0C48006800F000700028F9D0F7
:1025B0000948406820F00300074948600846406821
:1025C00040F00200486000BF0348406800F00C0083
:1025D0000828F9D10CBD0000001002400020024084
:1025E0004FF0E020006900F4803020B1024800681C
:1025F000401C0149086070478000002010B5134856
:10260000006840F001001149086008464068104920
:1026100008400E494860084600680E4908400B49CA
:1026200008600846006820F480200860084640687A
:1026300020F4FE0048604FF41F008860FFF75BFF46
:102640004FF000600449086010BD00000010024017
:102650000000FFF8FFFFF6FE08ED00E021B1028860
:1026600042F00102028004E002884FF6FE731A4035
:102670000280704731B1B0F8442042F40042A0F823
:10268000442005E0B0F84420C2F30E02A0F8442034
:102690007047000070B5002400220023058C4FF61F
:1026A000FE7635400584028C8388048B4FF68F7547
:1026B0002C40B51E2C400D882C43751E2A400D89D8
:1026C0002A434D882A43144DA8420BD0134DA842EB
:1026D00008D0134DA84205D0124DA84202D0124D89
:1026E000A84213D14FF6F7752A404D892A434FF679
:1026F000FB752A408D882A434FF6FF652B404FF625
:10270000FF552B408D892B43CD892B438380048338
:10271000CD888586028470BD002C014000340140C4
:1027200000400140004401400048014070B50024D1
:1027300000220023058C4FF6EF7635400584028C8D
:102740008388048B48F6FF752C404FF6FF452C40DC
:102750000D884FF6FF7606EA05252C434FF6DF7508
:102760002A400D8906EA05152A434D8806EA051513
:102770002A43154DA84202D0144DA8421DD14FF650
:102780007F752A404D894FF6FF7606EA05152A43E4
:102790004FF6BF752A408D8806EA05152A434FF685
:1027A000FF352B404FF2FF752B408D8906EA8505DA
:1027B0002B43CD8906EA85052B4383800483CD888E
:1027C0000587028470BD0000002C014000340140E8
:1027D00070B5002400220023058C4FF6FF663540BB
:1027E0000584028C8388848B4FF68F752C404FF6BE
:1027F000FC752C400D882C434FF6FF552A400D895F
:102800004FF6FF7606EA05252A434D8806EA052598
:102810002A43154DA84202D0144DA8421DD14FF2B3
:10282000FF752A404D894FF6FF7606EA05252A43B3
:102830004FF6FF352A408D8806EA05252A434EF6D5
:10284000FF752B404DF6FF752B408D8906EA051567
:102850002B43CD8906EA05152B4383808483CD88DD
:102860008587028470BD0000002C014000340140C7
:1028700070B5002200230024058C4EF6FF7635400B
:102880000584038C8488828B48F6FF752A404FF6B6
:10289000FF452A400D884FF6FF7606EA05252A43B4
:1028A0004DF6FF752B400D8906EA05352B434D8803
:1028B00006EA05352B430B4DA84202D00A4DA8422B
:1028C00008D14BF6FF752C408D894FF6FF7606EA4E
:1028D00085152C4384808283CD88A0F840500384E2
:1028E00070BD0000002C014000340140818670471B
:1028F0000187704781877047A0F84010704700003B
:10290000002202881D4B98420ED01D4B98420BD0DE
:10291000B0F1804F08D01B4B984205D01A4B98421B
:1029200002D01A4B984204D14FF68F731A404B884D
:102930001A43174B984207D0164B984204D04FF6D3
:10294000FF431A40CB881A4302808B8883850B880B
:1029500003850A4B98420BD0094B984208D00E4B86
:10296000984205D00D4B984202D00D4B984201D1B0
:102970000B7A03860123838270470000002C0140FC
:10298000003401400004004000080040000C0040FA
:10299000001000400014004000400140004401408D
:1029A0000048014021B1828942F40052828104E052
:1029B00082894DF6FF731A408281704702460020DB
:1029C000B1F5007F00D100BF13880B400BB101208F
:1029D00000E00020704700002DE9F04786B0054672
:1029E0000E460024A24600BFA1460027B08900B1D0
:1029F00000BF2F462C8A4CF6FF700440F088044339
:102A00002C82AC894EF6F3100440B088318908431B
:102A1000718908430443AC81AC8A4FF6FF400440FF
:102A2000B0890443AC8201A8FFF7FAFC1F48874233
:102A300002D1DDF810A001E0DDF80CA0A88900F4B7
:102A4000004040B10AEBCA0000EB0A1031684900AF
:102A5000B0FBF1F807E00AEBCA0000EB0A1031689E
:102A60008900B0FBF1F86420B8FBF0F00401200904
:102A7000642101FB1089A88900F4004040B1322094
:102A800000EBC900B0FBF1F000F00700044308E0E0
:102A9000322000EB09106421B0FBF1F000F00F00D0
:102AA00004432C8106B0BDE8F087000000380140E7
:102AB000C1F308028280704700BFFEE737B51446B5
:102AC0000846064B6A46214600F058F90446694616
:102AD000002000F0D6FC20463EBD000083340008F4
:102AE000490050EAC12018BF04204A0D18BF40F029
:102AF000010040F2FF72B2EB515F08BF40F00200EC
:102B0000012808BF052070472DE9F0414F1E00EB5A
:102B1000C7010446D1E9000115461E4637F00602FA
:102B20000DD02A463346FDF787FC7F1E04EBC70312
:102B3000D3E90023FDF7D9FB37F00602F1D1022FCC
:102B400025D0042F13D0062F18BFBDE8F0812A46E8
:102B50003346FDF771FCD4E90A23FDF7C6FB2A468C
:102B60003346FDF769FCD4E90823FDF7BEFB2A468E
:102B70003346FDF761FCD4E90623FDF7B6FB2A4690
:102B80003346FDF759FCD4E90423FDF7AEFB2A4692
:102B90003346FDF751FCD4E90223FDF7A6FB2A4694
:102BA0003346FDF749FCD4E90023BDE8F041FDF7C9
:102BB0009CBB0122FDF75ABFFDF797BB024A0020DC
:102BC0001107FDF753BF000001FDFFFF02E008C839
:102BD000121F08C1002AFAD170477047002001E097
:102BE00001C1121F002AFBD1704700000149086093
:102BF00070470000F00000202DE9FF5F82B0002147
:102C0000DDE90430020DDDF840B0034318D044F68E
:102C10001050A2F2FF3242431514119801281FD020
:102C2000A5EB0B00401C5FEA000A4FF000064E4F78
:102C3000DFF83891B046504615D5CAF1000413E0CC
:102C4000119801244AA3012801D16FEA0B010298CF
:102C5000119AC0E90031C0E9024206B0BDE8F09F18
:102C6000CBF10000DFE704460021404A491842EB5F
:102C70000450CDE9001012E0E00707D032463B4691
:102C800040464946FDF7D8FB8046894632463B46DA
:102C900010461946FDF7D0FB06460F466410002C7F
:102CA000EAD1DDE90401DDE90023BAF1000F06DA1B
:102CB000FDF7C2FB42464B46FDF7BEFB05E0FDF7C4
:102CC0002DFC42464B46FDF729FC04460E460022E9
:102CD000284BFDF705FD03D84FF0FF30014607E014
:102CE0000022254B20463146FDF7FFFAFDF7CDFCCB
:102CF000102409E0002C0ADB0A220023FDF744FD22
:102D0000039B30321A55641E50EA0102F2D1641C52
:102D1000039AC4F111031444119A012A03D0012229
:102D200008430DD10AE0084304D000204FF0110BF6
:102D3000119072E7A3EB0B056D1E0DE05B4504DD02
:102D40004FF0000205F1010504E003DA4FF0000244
:102D5000A5F10105002AECD002981199C0E90231D1
:102D6000C0E9004579E70000000014400000F03F92
:102D7000300000000000F0430000E03F2DE9FF4F6D
:102D800095B09A46884606460025EEE1252877D17B
:102D900000242746F94A0121039400E0044316F871
:102DA000013F203B01FA03F01042F7D130782A2886
:102DB00011D06FF02F033078A0F13002092A16D815
:102DC000039A44F0020402EB820203EB4202104435
:102DD000761C0390EFE758F8042B0392002A03DADD
:102DE000504244F40054039044F00204761C3078BE
:102DF0002E2816D116F8010F44F004042A280DD00D
:102E00006FF02F023078A0F13003092B09D807EBBF
:102E1000870302EB4303C718761CF3E758F8047BDB
:102E2000761C30786C280FD006DC4C2817D0682828
:102E30000DD06A2814D104E0742810D07A280FD15C
:102E40000DE044F400140AE044F4801401E044F47A
:102E500040147278824202D104F58014761C761CEC
:102E6000307866280BD013DC582877D009DC00288E
:102E700075D04528F6D04628F4D047281AD193E1DA
:102E800018E0632835D0642879D0652812D18BE109
:102E9000702873D008DC6728F1D069286FD06E28BD
:102EA0000DD06F2806D1ACE073282CD0752874D0D3
:102EB000782853D05246179990476D1C54E1C4F3BB
:102EC0000250022809D003280DD0D8F80010042899
:102ED0000DD00D6008F1040846E1D8F80010EA179B
:102EE000C1E90052F6E7D8F800100D80F2E70D7046
:102EF000F0E718F8041B8DF8001000208DF8010091
:102F0000EB46012003E058F804BB4FF0FF306107A7
:102F10004FF0000102D40DE009F101018946B942E8
:102F20000FDA8145F8DB1BF809100029F4D108E01D
:102F300009F1010189468142FADB1BF809100029D9
:102F4000F6D103985346A0EB090721463846179A55
:102F500000F080FA284400EB090507E044E008E1AE
:102F60000DE01BF8010B524617999047B9F1010982
:102F7000F7D2534621463846179AF2E039E00A2143
:102F8000C4F302524FF0000B0091022A06D058F809
:102F9000040BC117032A09D00AE023E008F1070057
:102FA00020F00702F2E80201904605E000B2C117E6
:102FB000042A01D140B2C117002906DA0A460021CD
:102FC000404261EB02012D2202E0220504D52B22B2
:102FD0008DF80420012203E0E20701D02022F7E768
:102FE000914657E00A2100E010214FF0000B0091BC
:102FF0000BE010214FF0000B44F00404082700916F
:1030000003E008204FF0000B0090C4F30252022AA4
:1030100005D058F8040B0021032A08D008E008F175
:10302000070020F00702F2E80201904603E080B2B8
:10303000042A00D1C0B24FF0000922072AD5327805
:10304000702A07D0DDF800C08CF0100C5CEA0B0C85
:1030500005D00EE040228DF80420012208E050EA5D
:10306000010306D030238DF804308DF805200222AC
:103070009146009B83F0080353EA0B030AD150EA00
:10308000010201D1620705D530228DF804204FF0EE
:1030900001097F1E3278582A04D039A20C920CAA5A
:1030A00002920BE03BA2F9E75B46009AFDF76CFB4E
:1030B0000C9B9B5C029A521E0292137050EA010212
:1030C000F2D1029804A9081A00F1200B600702D57A
:1030D00024F4803400E001275F4502DDA7EB0B00FC
:1030E00000E0002000EB0B01009003984944401AD7
:1030F0000390E00306D453462146179A039800F044
:10310000A9F90544002706E001A85246C05D1799B9
:1031100090476D1C7F1C4F45F6DBE0030CD55346F2
:103120002146179A039800F095F9054404E03020F1
:103130005246179990476D1C0099481E009000292F
:10314000F5DC08E00298029952460078491C029189
:10315000179990476D1CBBF10001ABF1010BF1DC3D
:103160005BE100F065F90544761C307800287FF4B7
:103170000DAE19B02846BDE8F08F00000928010007
:1031800030313233343536373839616263646566DD
:10319000000000003031323334353637383941429F
:1031A0004344454600000000600700D4062708F1AC
:1031B000070020F00700F0E80223804603F0004CEF
:1031C0005FEA0C0001D097A009E0200501D596A088
:1031D00005E0E00701D095A001E0AFF24C001390AC
:1031E000307823F0004365280CD006DC452809D050
:1031F00046281DD047287FD13BE0662818D0672895
:103200007AD136E00021112F01DB112000E0781C7B
:10321000CDE9000104A90CA8FFF7EEFCDDE90D01E2
:103220000C9A4FF0000B07F10109109200914EE04B
:103230004FF000400097CDE9011004A90CA8FFF75A
:10324000DBFCDDE90D020C9B0F994FF0000B914662
:103250001093009211B9791C00EB0109B7EB09003A
:1032600003D4C0F1FF3B07F10109A9EB070001906E
:1032700042E0012F00DA01270021112F01DD11208A
:1032800000E03846CDE9000104A90CA8FFF7B4FC22
:10329000DDE90D010C9A00914FF0000BB946109238
:1032A00021070FD4009A4A4503DA914601E0A9F1BB
:1032B0000109B9F1010F05DD109AA9F10101515C75
:1032C0003029F4D0B84202DA10F1040F03DA0121F8
:1032D000CDE9011010E0002803DC8344A9EB0001D4
:1032E00002E0411C494500DD8946A0EB0B00401C73
:1032F00001904FF000400290200705D40198484506
:1033000002DB4FF0FF30019000208DF84B00029857
:103310000DF14B07B0F1004F25D002200C902B206F
:103320000D90029800280CDA404202902D200D905A
:1033300007E00A210298FDF711FA3031029007F8F0
:10334000011D0C99481E0C900029F2DC02980028FF
:10335000EFD1791E0D980870307800F0200040F011
:10336000450007F8020D11A8C01BC01D029013985C
:10337000007800B1012000EB0901019801EBE07138
:10338000029801440398401A401E0390E00306D4BB
:1033900053462146179A039800F05CF805441398A9
:1033A000007818B15246179990476D1CE00323D559
:1033B00053462146179A039800F04CF805441BE049
:1033C000BBF1000F07DB0098584504DD10981799F2
:1033D00010F80B0001E017993020524690470198F1
:1033E0000BF1010B401E05F10105019004D12E20C7
:1033F0005246179990476D1CB9F10001A9F10109D6
:10340000DEDC05E017F8010B5246179990476D1C5A
:103410000299481E02900029F4DC53462146179A6F
:1034200003989EE62D0000002B0000002000000005
:103430002DE9F041044600251E461746880404D4B1
:1034400005E039462020B0476D1C641EF9D528469A
:10345000BDE8F0812DE9F041044600251E46904666
:10346000C80301D5302700E02027880404D505E0F3
:1034700041463846B0476D1C641EF9D52846BDE864
:10348000F0810A68531C0B60107070472DE9F84FEB
:1034900004460D4621F0004000917349814211DC41
:1034A0007249884201DC06D12CB120462946BDE88C
:1034B000F84FFFF77EBB6E48002DCCBF6D496E49BB
:1034C000BDE8F88F6D49814211DD6D498142D8BF59
:1034D0004FF0FF366DDD20462946FFF701FB04283B
:1034E00008BFFFF76BFB20462946BDE8F88F65490A
:1034F000654F25F00045814233DD6449814219DD85
:10350000002632464FF0804320462946FCF7EDFE68
:1035100080468A46012220462946FDF7A7FA002266
:103520003B46FCF783FF42465346FCF7F7FF044651
:103530000D463EE001260022BA463B46204629467B
:10354000FCF7D3FE80460F4600225346204629460C
:10355000FCF76CFF42463B46FCF7E0FF04460D4695
:1035600027E04B4981421BDDDFF828A1022600221B
:10357000534620462946FCF75FFF00223B46FCF7F6
:10358000B4FE80460F460022534620462946FCF7EB
:103590004DFF42463B46FCF7C1FF04460D4608E09E
:1035A000032622462B4600203B49FCF7B7FF044682
:1035B0000D4622462B4610461946FCF73DFF8B462A
:1035C000824602460B46FCF737FF07460246334861
:1035D00088460B4606217844FFF796FA52465B462A
:1035E000FCF72AFF82462E488B463A464346052181
:1035F0007844FFF789FA3A464346FCF71DFF024636
:103600000B46002E504659460CDAFCF76EFE224659
:103610002B46FCF711FF01B022462B46BDE8F04FC8
:10362000FCF707BFFCF761FE22462B46FCF704FFC0
:103630001C4A7A4402EBC603D3E90023FCF7F6FEEA
:1036400022462B46FCF7F2FE174A7A4402EBC603E9
:10365000D3E90023FCF7EDFE009A002AB8BF81F001
:103660000041BDE8F88F0000000010440000F07F2A
:10367000182D4454FB21F93FFB21F9BF0000DC3F2A
:103680000000203E0000F33F0000F03F0000E63F56
:10369000008003400000F83F0000F0BFD6050000A6
:1036A0009405000032050000FA0400002DE9F04DF9
:1036B0009446CCF1000423F000464CEA0404594F30
:1036C00046EAD4749A46884621F00042BC4206D8A5
:1036D000454240EA050442EAD474BC4204D9BDE83C
:1036E000F04D6246FFF768BAAAF14055A5F17F6533
:1036F00055EA0C040BD0022404EAAA744A4DDFF800
:103700002CE144EAD87452EA000B04D00CE0BDE886
:10371000F04DFFF7BBBE002C14BF012CBDE8F08DAF
:10372000022C30D0032C32D056EA0C0B0AD0BE4209
:1037300020D1BA4209D126F0804622F08042334699
:10374000114617E000291ADB25E0DFF8E4B0FB445E
:10375000002C04BFDBE90001BDE8F08D012C02BFA5
:10376000DBE9000181F00041BDE8F08D022C0AD0B8
:10377000032C0CD0BA4212D1B8F1000F0BDA2A4850
:103780002C49BDE8F08D28462B49BDE8F08D284630
:103790007146BDE8F08D24482849BDE8F08D921BA4
:1037A00012153C2AC4BF204F244E10DCBAF1000F82
:1037B000BEBF12F13C0F00273E4608DB6246FCF715
:1037C000ADFE21F00041FFF761FE07460E4694B1C1
:1037D000012C08BF86F000460DD0194A194B022C67
:1037E0003846314615D0FCF721FE2A46BDE8F04D9B
:1037F000114BFCF71BBE0022134638463146FDF73D
:103800000BF904BF0220FFF7F1F938463146BDE855
:10381000F08DFCF70BFE2A46BDE8F04D064BFCF799
:1038200008BE00000000F07F182D4454FB2109C0A1
:103830008E040000FB21F9BFFB210940FB21F93F69
:10384000075C143326A6A13C70B504460E460B480F
:10385000056814212046FCF76EFCE660002020611C
:103860000648006810B90548046070BD00E02D6985
:1038700028690028FBD12C6100BFF6E78C000020EE
:103880002DE9F04104460D4616461F462580701965
:103890006080A78000F046F8A0600020A0711DB9EC
:1038A000E16888470020E071BDE8F08110B51C4850
:1038B000046832E0208800B92EE000F033F8A168F7
:1038C000401A2188884206D2E07920BB0120E071AD
:1038D000E16888471FE000F025F8A168401A618878
:1038E000884206D2E079B0B10020E071E1688847F3
:1038F00011E000F017F8A060A08860B1A079401C2A
:10390000C0B2A071A188884205DB00202080E16858
:1039100088470020E07100BF2469002CCAD110BD87
:103920008C00002010B5FDF77FFD10BD00B585B0FF
:1039300001210846FEF764FD01210220FDF722FD6A
:1039400001210820FEF75CFD002004904FF4407038
:10395000ADF810001C208DF8130002208DF8120025
:1039600004A90D48FDF782FC01214805FEF738FD4A
:1039700000200090019002900390084800904BF6C0
:10398000FF70ADF806000020ADF804006946044859
:10399000FDF7DCFD05B000BD000C0140801A0600FB
:1039A000005400402DE9F04104460D46164600271C
:1039B000B84635B1012D08D0022D0AD0032D11D102
:1039C0000BE00020804607460CE001274FF000087E
:1039D00008E064274FF4617804E04FF4FA7740F68A
:1039E000C41800BF00BF04EB8401054A02EB81004C
:1039F000334642463946FFF743FFBDE8F0810000F9
:103A00008401002008B501211020FEF7F9FC4FF4D5
:103A10000050ADF8000010208DF8030002208DF852
:103A2000020069460648FDF721FC06490648FFF7F3
:103A30000BFF002202211046FFF7B4FF08BD000073
:103A400000100140B93A0008840100204FF4E06002
:103A5000FEF74AFC00F004F801E000F011F8FCE782
:103A600010B5054C03E021460834486880470348F8
:103A70008442F8D310BD0000303C0008603C0008D0
:103A800010B50A4C0EE0FFF74DFFE1680968401AD7
:103A9000A168884205D3FFF745FFE16808606068C8
:103AA0008047103402488442EDD310BD783C0008B2
:103AB000A83C00087047000030B90749C96841F4C4
:103AC0000051054AD16005E00349C96821F400515D
:103AD000014AD160704700000010014038B505462A
:103AE0000C468DF800508DF8014002236A46D02123
:103AF0000148FEF7F3FA38BD005400402DE9F041CB
:103B000006460F46FCF736FF041E0D4618BF01207F
:103B1000284320F00040C0F17F6000F1E040C00F7A
:103B20000ED0301C18BF0120384320F00040C0F1F7
:103B30007F6000F1E040C00F04BF0120FFF756F89E
:103B400020462946BDE8F0814FBB610567ACDD3FEB
:103B5000182D4454FB21E93F9BF681D20B73EF3FB4
:103B6000182D4454FB21F93FE2652F227F2B7A3C2C
:103B7000075C143326A6813CBDCBF07A8807703CE5
:103B8000075C143326A6913CC4EB98999999C9BF58
:103B9000711623FEC671BCBF6D9A74AFF2B0B3BF8D
:103BA0009AFDDE522DDEADBF2F6C6A2C44B4A2BF4D
:103BB0000D5555555555D53FFF8300922449C23FB9
:103BC0006E204CC5CD45B73F513DD0A0660DB13FED
:103BD000EB0D76244B7BA93F11DA22E33AAD903FFF
:103BE00000000000000000005553415254335F496B
:103BF0006E69740050574D00456E636F64657200C6
:103C00006C656400000000004D50553630353000C2
:103C1000B83C000800000020F4000000CC2B000895
:103C2000AC3D0008F400002054110000DC2B00081B
:103C3000043C0008B53A0008E83B00087D0D000888
:103C4000F43B0008790B0008F83B0008510B000812
:103C5000003C0008053A0008083C0008151E000852
:103C6000043C0008B53A0008043C0008B53A0008D6
:103C70000000000000000000F43B0008952300084D
:103C8000D007000014000020003C0008AD380008F8
:103C90000A00000068000020083C0008611D0008C0
:103CA00000000000B4000020043C0008B53A000801
:103CB0000000000000000000000000000000000004
:103CC00000000000000000000000000000000000F4
:103CD00000000000000000000000000000000000E4
:103CE00000000000000000000101000000000000D2
:103CF00000000000000000000000000000000000C4
:103D000000000000000000000000000000000000B3
:103D100000000000000000000000000000000000A3
:103D2000000000000000000001020304010203047F
:103D30000607080902040608000000000000000051
:103D40000000000000000000000000000000000073
:103D50000000000000000000000000000000000063
:103D60000000000000000000000000000000000053
:103D70000000000000000000000000000000803F84
:103D80000000000000000000000000000000000033
:103D90000000000000000000000000000000000023
:0C3DA00000000000010000000000000016
:04000005080000ED02
:00000001FF
