:020000040800F2
:10000000181200200501000811110008C510000891
:10001000C9100008F90B00084F1F0008000000007D
:10002000000000000000000000000000791400083B
:10003000FD0B0008000000006113000865150008B2
:100040001F0100081F0100081F0100081F01000810
:100050001F0100081F0100081F0100081F01000800
:100060001F0100081F0100081F0100081F010008F0
:100070001F0100081F0100081F0100081F010008E0
:100080001F0100081F010008510700081F01000898
:100090001F0100081F0100081F0100081F010008C0
:1000A0001F0100081F0100081F0100081F010008B0
:1000B0001F0100081F0100081F0100081F010008A0
:1000C0001F0100081F0100081F0100081F01000890
:1000D0001F0100081F0100081F010008591D00082A
:1000E0001F0100081F0100081F010008DFF810D0E1
:1000F00000F01CFB0048004795220008AFF3008089
:10010000181200200648804706480047FEE7FEE731
:10011000FEE7FEE7FEE7FEE7FEE7FEE7FEE7FEE7B7
:1001200081150008ED00000840EA01039B0703D099
:1001300009E008C9121F08C0042AFAD203E011F826
:10014000013B00F8013B521EF9D27047D2B201E0E8
:1001500000F8012B491EFBD270470022F6E710B5CC
:1001600013460A4604461946FFF7F0FF204610BD25
:10017000F0B480EA0102D40F4200B2EB410F02D288
:100180000246084611464A0042D0C30DDDB2C1F313
:10019000C752AD1A202D35DAC1F3160141F4000221
:1001A00004B15242C5F1200602FA06F12A41104478
:1001B000B3EBD05F23D0C4B1012DA0EBC35009DC59
:1001C000F0BC4FF0004202EAC352DBB200F500007F
:1001D00000F020BA400000F1807000EBC350A0F1A5
:1001E000807040EAD170490009E0490841EAC071D5
:1001F000A0EBC35000F50000400800EBC350F0BC7A
:1002000000F0FFB96142012202EB4101001BF6E759
:10021000F0BC704781F00041AAE780F00040A7E7FA
:1002200080EA010210B502F00043400022D04A00EB
:100230001FD0010E01EB1261C0F35600C2F356024B
:1002400040F4000042F40002A0FB022000047F39C9
:10025000140400D0401C50EA124001D44000491E52
:10026000C2B20C0604EBD010401C4008802A02D019
:1002700003E0002010BD20F00100002900DA00207A
:10028000184310BD30B480EA010202F0004530F09E
:10029000004221F0004013D090B1C30DD40DC2F341
:1002A0001601C0F31600E41A41F4000140F4000204
:1002B0007D34914201D3641C00E04900002C02DA35
:1002C00030BC002070474FF400000023914201D35E
:1002D000891A034340084FEA4101F7D151B19142D5
:1002E00002D14FF0004105E002D24FF0010101E0E0
:1002F0006FF0010103EBC450284430BC00F081B919
:100300002DE9FE4F81EA030404F0004421F000418E
:1003100000944FF0000B23F0004350EA01045ED03C
:1003200052EA03045BD0C3F30A54C1F30A552C44C8
:10033000A4F2F3340194A0FB0254C1F3130141F47D
:100340008011C3F3130343F4801301FB024400FB49
:10035000034E840A970A44EA815447EA8357A4FB70
:10036000076802958D0A05FB07854FEA932C04FB6D
:100370000C542705029D4FEA065847EA1637B5EB9D
:1003800008056EEB070C870E920E47EA811742EACA
:100390008312A7FB0201B6EB0B0164EB00042B0DEB
:1003A00043EA0C335E1844EB1C50DA465146E7FB37
:1003B0000201C5F313044FEA0B3343EA14534FEA27
:1003C0000432019C43EA0603A4F10C040294009C4D
:1003D000CDE900B400F05BF903B0BDE8F08F002078
:1003E0000146F9E72DE9F04D81EA030404F0004BE2
:1003F00021F0004514464FF0000A23F0004150EA76
:10040000050220D054EA01021DD0C5F30A57024666
:10041000C5F31303C1F31300C1F30A5640F480156A
:1004200043F48013A7EB0608101BD64608F2FD38EC
:1004300073EB050002D308F1010801E092185B415B
:10044000B8F1000F03DA00200146BDE8F08D00206E
:100450004FF48011064684460EE0171B73EB050728
:1004600005D3121B63EB050306434CEA010C490854
:100470004FEA300092185B4150EA0107EDD152EA91
:10048000030012D082EA040083EA0501084305D084
:10049000101BAB4106D20122002306E000224FF0E0
:1004A000004302E06FF0010253101AEB06004CEB20
:1004B000085110EB0A0041EB0B01BDE8F04D00F0D4
:1004C000D7B8C10F80EAE0700844CA07962300211C
:1004D00000F0A0B896230022114600F09BB830B47B
:1004E000044696230800214604D0B62330BC0022DF
:1004F00000F090B820460021F8E70EB540F23341F5
:1005000002910021CDE900110A460B4600F0BFF828
:1005100003B000BD20F00040C10DC0F3160040F450
:1005200000007F2901DA00207047962903DCC1F121
:100530009601C840704796398840704700F00042E5
:1005400030F000400AD0C10D01F56071C0F3160013
:1005500042EA0151C208400711437047002001469A
:10056000704701F0004330B421F0004150EA01022D
:1005700006D00A0DA2F56072C1F31301002A02DC55
:1005800030BC00207047440F44EAC104C100E018A9
:1005900030BC00EBC25000F034B80000002801DB92
:1005A000C0F10040002901DBC1F1004181427047E8
:1005B000002801DBC0F10040002901DBC1F100414E
:1005C00088427047202A04DB203A00FA02F100201A
:1005D00070479140C2F1200320FA03F31943904081
:1005E0007047202A04DB203A21FA02F000217047EC
:1005F00021FA02F3D040C2F120029140084319468B
:1006000070470029A8BF7047401C490008BF20F070
:100610000100704710B4B0FA80FC00FA0CF050EA08
:10062000010404BF10BC704749B1CCF1200421FA89
:1006300004F411FA0CF118BF012121430843A3EB84
:100640000C01CB1D4FEA00614FEA102042BF002091
:1006500010BC704700EBC35010440029A4BF10BC6D
:100660007047401C490008BF20F0010010BC7047D3
:1006700010B5141E73F1000408DA401C41F10001AA
:1006800092185B411A4301D120F0010010BD2DE901
:10069000F04D92469B4611B1B1FA81F202E0B0FAF8
:1006A00080F220329046FFF78DFF04460F4640EA65
:1006B0000A0041EA0B0153465A46084313D011463B
:1006C00053EA010019D0C8F140025046FFF789FFF4
:1006D00005460E46504659464246FFF773FF08430B
:1006E00005D0012004E020463946BDE8F08D002009
:1006F000054346EAE0762C4337430A986305E40A4B
:10070000A0EB08000022FD0A44EA47540A3002D553
:1007100000200146E9E7010510196941DDE90845B6
:1007200000196941BDE8F04DA2E70000064C074DF5
:1007300006E0E06840F0010394E8070098471034B1
:10074000AC42F6D3FFF7D6FC142800083428000882
:100750002DE9FE4F0421194800F03DF801282AD167
:100760000421164800F034F81421144800F03CF835
:1007700002900298FFF7AEFE11490090FFF782FD4C
:100780000190FFF7DBFE80464FF066320D4BFFF71E
:10079000B7FD06464FF040420B4BFFF7B1FD044654
:1007A0004FF06632074BFFF71DFE8246FFF7D9FE7A
:1007B0000649086000BFBDE8FE8F0000002401402C
:1007C00000F07F4566660A40CCCC20400000002047
:1007D000CA43026070470246002013680B400BB109
:1007E000012000E00020704708B50246002000907C
:1007F000009201F12800009B1844009000980068C6
:1008000080B208BD00487047000010412DE9F0415A
:1008100004460D4616461F460DB9BDE8F081A847AF
:100820006660A7600020A0810021A161E1612162D2
:10083000616260616422110704F1280000F076FD16
:1008400000BFEAE72DE9F041044600F0BFFBC4E930
:10085000060160688047A081A0688047D4E90670DF
:10086000D4E90861BA1B60EB01011046FFF737FEBF
:1008700005461349FFF7D4FC2061B4F90C00FFF7DB
:1008800020FE80462169FFF7FDFC07460D49FFF772
:10089000F9FC06460C49FFF7F5FC05460B49FFF746
:1008A000BFFC606104F12800616900F00CFD60612B
:1008B000D4E90601C4E908016069BDE8F0810000DF
:1008C000BD37863500003042F344A341DB0FC940F9
:1008D00010B50248FFF7B6FF10BD0000F000002081
:1008E00010B50348FFF7AEFF80F0004010BD0000D8
:1008F000B800002010B5064B064A07490748FFF725
:1009000085FF074B074A08490848FFF77FFF10BDDE
:10091000D5210008C5210008550D0008B8000020A9
:10092000B7210008A9210008D50C0008F00000201C
:1009300010B50C4B4FF07F520B490C4800F0ACFC4B
:100940000B4A0C49094800F0BBFC064B4FF07F52A4
:100950000549094800F0A0FC054A0649064800F090
:10096000AFFC10BD0AD7233CCDCC4C3F6801002022
:10097000666606C166660641900100202DE9F047D3
:10098000FFF7A6FF17490860FFF7AAFF164908609E
:1009900014480168154800F001FC06461248016839
:1009A000134800F0FBFB0746FFF72CFF804641464B
:1009B0003046FFF767FC81460E49FFF731FC0446DD
:1009C00041463846FFF75EFC81460A49FFF728FC9E
:1009D0000546204600F03AFB284600F055FBBDE8EE
:1009E000F087000020000020240000206801002083
:1009F000900100200000C84210B50446214602487C
:100A000000F0CAFB10BD00006801002010B50446CC
:100A10002146024800F0C0FB10BD000090010020FC
:100A200000B589B0002008900121084600F0AAFC1A
:100A30000121042000F0A6FC0121082000F0A2FC06
:100A40001820ADF8200000208DF8230002208DF83A
:100A5000220008A9354800F0DDF9C020ADF82000DB
:100A600018208DF8230002208DF8220008A92F48B5
:100A700000F0D0F90320ADF8200008A92C4800F0C0
:100A8000C9F90121022000F06DFC002005900690BC
:100A90000790ADF8160040F21F30ADF8180008209E
:100AA000ADF8140000208DF81C0005A9214801F0C4
:100AB00001F96020ADF804000120ADF80600002027
:100AC000ADF80A000220ADF80C00C001ADF810002E
:100AD00001A9184800F05CFF0821164800F0A4FFA7
:100AE00001A9144800F0AAFF0821124800F0F8FFFD
:100AF00001A9104801F002F808210E4801F04EF853
:100B000001A90C4801F054F808210A4801F08EF8B8
:100B10000121084800F09CFE0121064800F080FEFB
:100B20000121044800F088FE09B000BD0008014022
:100B3000000C01400004004000B587B001210820EE
:100B400000F020FC002006904FF48060ADF8180003
:100B500018208DF81B0002208DF81A0006A92448E1
:100B600000F058F94FF40060ADF8180048208DF8F7
:100B70001B0006A91E4800F04DF90121880400F071
:100B8000F1FB002002900390049005904FF4612047
:100B900002900C20ADF812000020ADF81000ADF866
:100BA0000E00ADF80C0002A9124801F05BF92720F5
:100BB0008DF8040000208DF8050003208DF8060054
:100BC00001208DF8070001A800F0A4FA012240F2EC
:100BD0002551084801F021F9012240F2244105483D
:100BE00001F01BF90121034801F0D4F807B000BD62
:100BF000000C01400048004000BFFEE770470000C5
:100C00002DE9F04186B02E480078002855D101200A
:100C10002B490870142101A8FFF79FFA4FF0E0203C
:100C2000006920F001004FF0E02108610020254913
:100C3000086001A800F0B6FB4FF0E020006940F02A
:100C400002004FF0E021086100211F48C1774FF4F6
:100C50007A710298B0FBF1F4B4F1807F09D3E40813
:100C60004FF0E020006920F004004FF0E02108611F
:100C700007E04FF0E020006940F004004FF0E02171
:100C80000861601E4FF0E02148610846006940F0AD
:100C900001000861496921F07F41481CFFF72DFCE4
:100CA00007463A460B4600200849FFF79BFB0546DE
:100CB000FFF757FC0649086000BF06B0BDE8F081A9
:100CC000480000204400002000ED00E000408F407C
:100CD0004C0000201FB50121042000F053FB03202D
:100CE000ADF80C0048208DF80F0003A9174800F05C
:100CF00091F80121164800F019F90121084600F089
:100D000031FB00231A4603214FF0804000F0AFFD75
:100D1000684600F033FE0020ADF800000820ADF872
:100D200008006946C00600F0D3FD0420ADF80000BD
:100D30006946000700F0CCFD00214FF0804000F034
:100D40008BFF0121880700F077FD1FBD00080140DF
:100D50000002300000B587B00121042000F002FB42
:100D60000121092000F00EFB0121274800F0DEF8E8
:100D7000C020ADF8180048208DF81B0006A92348B4
:100D800000F048F84FF6FF70ADF810000020ADF805
:100D90000C00ADF81200ADF80E0003A91C4800F0DD
:100DA00089FF00231A460321194800F060FD6846B8
:100DB00000F0E4FD0020ADF800000120ADF80400D3
:100DC0000020ADF806000820ADF80800694610487C
:100DD00000F07EFD0420ADF800000120ADF8040015
:100DE0000020ADF806000820ADF808006946084864
:100DF00000F06EFD0021064800F02EFF012104489E
:100E000000F01AFD07B000BD00023000000C0140E8
:100E1000000800402DE9F041024600250026002090
:100E200000230024002791F803C00CF00F0591F86F
:100E300003C00CF0100CBCF1000F03D091F802C0FD
:100E40004CEA050591F800C0BCF1000F31D01468E0
:100E500000202BE04FF0010C0CFA00F3B1F800C0B9
:100E60000CEA03069E4220D183004FF00F0C0CFACF
:100E700003F7BC4305FA03FC4CEA040491F803C0F1
:100E8000BCF1280F06D14FF0010C0CFA00FCC2F89F
:100E900014C00AE091F803C0BCF1480F05D14FF02F
:100EA000010C0CFA00FCC2F810C0401C0828D1D379
:100EB0001460B1F800C0BCF1FF0F34DD54680020AD
:100EC0002EE000F1080C4FF0010808FA0CF3B1F81D
:100ED00000C00CEA03069E4221D183004FF00F0CA4
:100EE0000CFA03F7BC4305FA03FC4CEA040491F83E
:100EF00003C0BCF1280F05D100F1080C08FA0CF86A
:100F0000C2F8148091F803C0BCF1480F07D100F17A
:100F1000080C4FF0010808FA0CF8C2F81080401CC9
:100F20000828CED35460BDE8F0810000F0B50A4631
:100F3000002300240021002500F00046B6F1004FF8
:100F400002D11D4EF16901E01B4E7168C0F30345EB
:100F500083B200F44016B6F5401F08D121F070614D
:100F6000154E766826F07066134F7E6012E000F42E
:100F70008016B6F5801F06D1032606FA05F4A143B4
:100F800041F0706106E0460D360103FA06F6B14302
:100F900041F0706122B1460D360103FA06F6314385
:100FA00000F00046B6F1004F02D1034EF16101E0BE
:100FB000014E7160F0BD00000000014010B5FFF768
:100FC0001FFE0148006810BD440000202DE9F041DB
:100FD000FFF716FE72B610E01A48046800254FF0BD
:100FE000E0208669006900F4803028B11548006867
:100FF000401C1449086000E000E0EDE700BF62B665
:101000004FF47A7200272046A0FB021C05FB02C2A7
:1010100004FB07250C464FF0E0214969881BFFF7C8
:1010200059FA8046084801684046FFF7F9F8074634
:10103000FFF770FA041945F1000520462946BDE87E
:10104000F0810000440000204C00002070B50446F0
:1010500000212046FFF7ACFA07D82046FFF75AFADE
:10106000C5B2284601F0AEF90DE000212046FFF799
:1010700095FA08D284F000463046FFF74BFAC5B225
:10108000284601F0DFF970BD70B504460021204606
:10109000FFF78EFA07D82046FFF73CFAC5B228467C
:1010A00001F0E5F90DE000212046FFF777FA08D2BC
:1010B00084F000463046FFF72DFAC5B2284601F00D
:1010C00015FA70BD00BFFEE700BFFEE72DE9F04155
:1010D00007460E4614460CB9BDE8F08100250CE029
:1010E00000BF8021384600F061FE0028F9D0715D14
:1010F000384600F028FF681C85B2A542F0DB00BF2F
:101100004021384600F052FE0028F9D000BFE3E746
:101110007047000070B5002100230F22C47804B38B
:10112000154C246804F4E064C4F5E064210AC1F1BC
:101130000403CA40447804FA03F18478144021433C
:1011400009010E4C0678A155047804F01F0501240E
:10115000AC4005786D11AD0005F1E025C5F8004102
:1011600009E0047804F01F050124AC40044D067822
:10117000761145F8264070BD0CED00E000E400E07B
:1011800080E100E002490143024A1160704700001B
:101190000000FA050CED00E0C16070472DE9F34F47
:1011A00087B00446E0680899FFF734F80746FFF770
:1011B0000DFF05460E46D4E904012A1A66EB01012B
:1011C0001046FFF78CF982463249FFF729F806905E
:1011D0000020059080460023D4E90401584059407E
:1011E00008431AD03846A169FFF714F882460699D9
:1011F000FFF748F805903846A169FEF7B9FF01905E
:101200000699FFF70DF883464FF07C51FFF708F879
:101210008246E169FEF7ACFF804639462068FEF75A
:10122000FFFF049041466068FEF7FAFF0390A06854
:101230000599FEF7F5FF0290DDE90310FEF798FF30
:1012400082460299FEF794FF8146C4E90456A761DD
:10125000C4F81C804846216AFFF7AAF901D2D4F8E5
:1012600020904846616AFFF799F901D2D4F824909A
:10127000D4E90701FFF79CF901D2206AE061616AB5
:10128000E069FFF78BF901D2606AE061484609B076
:10129000BDE8F08FBD37863530B5016042608360B0
:1012A0000024C4600025056145618461C461024C6D
:1012B0000462024C446230BD9EC97F7F9EC97FFF9D
:1012C0000162426270472DE9F04704460D46A1686D
:1012D0002068FEF74DFF0746D4E90010FEF7A0FF97
:1012E00080462846A168FEF79BFF81464146FEF7EF
:1012F0003FFF06463946FEF7C5FF60606068BDE8FF
:10130000F0872DE9F04104460D461646256030462B
:10131000FFF7E0F8074639464FF07E50FEF7B2FF80
:10132000A06000206060BDE8F08100002DE9F04180
:1013300004460D46164629460848FEF771FF8046CA
:1013400041464FF07E50FEF79DFF07463246394634
:101350002046FFF7D6FFBDE8F0810000DB0FC94053
:101360007047000029B1064AD2690243044BDA6192
:1013700004E0034AD2698243014BDA6170470000FE
:101380000010024029B1064A92690243044B9A6157
:1013900004E0034A92698243014B9A61704700005E
:1013A0000010024030B500210022002400232D4D02
:1013B0006D6805F00C0121B1042905D0082923D15D
:1013C00005E0294D056022E0274D05601FE0254D11
:1013D0006D6805F47012234D6D6805F480340225A4
:1013E00005EB92421CB9214D554305600BE01D4DA4
:1013F0006D6805F400351DB11C4D5543056002E0D4
:10140000194D5543056002E0174D056000BF00BF50
:10141000144D6D6805F0F0010909154D6B5C056808
:10142000DD4045600F4D6D6805F4E061090A104D1F
:101430006B5C4568DD4085600A4D6D6805F4605160
:10144000C90A0B4D6B5C4568DD40C560054D6D6894
:1014500005F44041890B074D6B5CC568B5FBF3F59E
:10146000056130BD0010024000127A0000093D0005
:101470003000002040000020704710B500F002F856
:1014800010BD00000CB500200190009033480068AA
:1014900040F480303149086000BF3048006800F4F3
:1014A000003000900198401C0190009818B90198F4
:1014B000B0F5A06FF1D12948006800F4003010B1F8
:1014C0000120009001E0002000900098012843D105
:1014D0002348006840F01000214908600846006871
:1014E00020F0070008600846006840F0020008602D
:1014F0001A484068194948600846406848600846EC
:10150000406840F4806048600846406820F47C10E1
:1015100048600846406840F4E810486008460068A3
:1015200040F08070086000BF0C48006800F0007058
:101530000028F9D00948406820F0030007494860B6
:101540000846406840F00200486000BF0348406819
:1015500000F00C000828F9D10CBD0000001002407A
:10156000002002404FF0E020006900F4803020B1FC
:1015700002480068401C0149086070474400002090
:1015800010B51348006840F0010011490860084692
:101590004068104908400E494860084600680E49F6
:1015A00008400B4908600846006820F48020086065
:1015B0000846406820F4FE0048604FF41F00886031
:1015C000FFF75BFF4FF000600449086010BD0000AA
:1015D000001002400000FFF8FFFFF6FE08ED00E0FB
:1015E000F0B50C46154600220021068C4FF6FE771A
:1015F0003E400684028B018C4FF60C7632407E1CF6
:1016000006EA03162E433243104EB0420ED0104E5F
:10161000B0420BD0B0F1804F08D00E4EB04205D092
:101620000D4EB04202D00D4EB04206D14FF6FD76BF
:10163000314044F00106314305E04FF6F576314084
:1016400044F00106314302830184F0BD002C0140C7
:10165000003401400004004000080040000C00403D
:10166000F0B50C461546002200210026078C4FF6E7
:10167000EF7C07EA0C070784028B018C4FF6FF779B
:1016800007EA041640F6FF473A404FF6FF7707EAAD
:1016900003373A434FF6FF7707EA05273A43114FDE
:1016A000B8420ED0104FB8420BD0B0F1804F08D0E6
:1016B0000E4FB84205D00E4FB84202D00D4FB8427F
:1016C00006D14FF6DF77394046F01007394305E081
:1016D0004FF65F77394044F01007394302830184A5
:1016E000F0BD0000002C0140003401400004004027
:1016F00000080040000C0040F0B50C4615460022E2
:1017000000210026078C4FF6FF6C07EA0C070784C0
:10171000828B018C4FF6FF7707EA04264FF60C7791
:101720003A404FF6FF7707EA03172F433A43114F2A
:10173000B8420ED0104FB8420BD0B0F1804F08D055
:101740000E4FB84205D00E4FB84202D00D4FB842EE
:1017500006D14FF6FF57394046F48077394305E00C
:101760004FF2FF57394044F4807739438283018434
:10177000F0BD0000002C0140003401400004004096
:1017800000080040000C0040F0B50C461546002251
:1017900000210026078C4EF6FF7C07EA0C07078421
:1017A000828B018C4FF6FF7707EA043640F6FF473D
:1017B0003A404FF6FF7707EA05273A434FF6FF779F
:1017C00007EA03373A43114FB8420ED0104FB842E0
:1017D0000BD0B0F1804F08D00E4FB84205D00E4F5D
:1017E000B84202D00D4FB84206D14DF6FF773940CE
:1017F00046F48057394305E047F6FF57394044F433
:101800008057394382830184F0BD0000002C0140E1
:10181000003401400004004000080040000C00407B
:1018200021B1028842F08002028004E002884FF673
:101830007F731A400280704721B1028842F0010292
:10184000028004E002884FF6FE731A40028070475F
:1018500031B1B0F8442042F40042A0F8442005E041
:10186000B0F84420C2F30E02A0F844207047F0B54F
:101870000C4615461E460021002200230189028BDA
:10188000038C4FF6F877394021434FF6FC473A4036
:1018900040F201173A434FF6DD773B404FF6FF77B2
:1018A00007EA06172F433B43018102830384F0BDFF
:1018B0000146888E70470146088F70470146888F21
:1018C00070470146B1F8400070470146888C704768
:1018D00070B505460C46244885420ED02348854203
:1018E0000BD0B5F1804F08D02148854205D0214862
:1018F000854202D02048854200D100E000BF208808
:1019000050B92389A28861882846FFF769FEE188DB
:10191000284600F0A3F925E0208804280AD123896D
:10192000A28861882846FFF79BFEE188284600F0E0
:101930009EF917E0208808280AD12389A2886188A7
:101940002846FFF7D9FEE188284600F09DF909E016
:101950002389A28861882846FFF716FFE188284678
:1019600000F09BF970BD0000002C014000340140E4
:101970000004004000080040000C004000210180ED
:101980004180012181800021C180018170470000D8
:1019900070B5002400220023058C4FF6FE763540FA
:1019A0000584028C8388048B4FF68F752C40B51EFE
:1019B0002C400D882C43751E2A400D892A434D88E2
:1019C0002A43144DA8420BD0134DA84208D0134D02
:1019D000A84205D0124DA84202D0124DA84213D100
:1019E0004FF6F7752A404D892A434FF6FB752A407A
:1019F0008D882A434FF6FF652B404FF6FF552B404D
:101A00008D892B43CD892B4383800483CD888586A4
:101A1000028470BD002C01400034014000400140B0
:101A200000440140004801400A460021018B4FF666
:101A3000F7731940114301837047000070B500240B
:101A400000220023058C4FF6EF7635400584028C8A
:101A50008388048B48F6FF752C404FF6FF452C40D9
:101A60000D884FF6FF7606EA05252C434FF6DF7505
:101A70002A400D8906EA05152A434D8806EA051510
:101A80002A43154DA84202D0144DA8421DD14FF64D
:101A90007F752A404D894FF6FF7606EA05152A43E1
:101AA0004FF6BF752A408D8806EA05152A434FF682
:101AB000FF352B404FF2FF752B408D8906EA8505D7
:101AC0002B43CD8906EA85052B4383800483CD888B
:101AD0000587028470BD0000002C014000340140E5
:101AE0000A460021018B4FF2FF7319404FF6FF7336
:101AF00003EA0223194301837047000070B50024F4
:101B000000220023058C4FF6FF6635400584028CC9
:101B10008388848B4FF68F752C404FF6FC752C40D4
:101B20000D882C434FF6FF552A400D894FF6FF765E
:101B300006EA05252A434D8806EA05252A43154D60
:101B4000A84202D0144DA8421DD14FF2FF752A4081
:101B50004D894FF6FF7606EA05252A434FF6FF35F5
:101B60002A408D8806EA05252A434EF6FF752B404C
:101B70004DF6FF752B408D8906EA05152B43CD895F
:101B800006EA05152B4383808483CD8885870284EC
:101B900070BD0000002C0140003401400A460021C5
:101BA000818B4FF6F7731940114381837047000012
:101BB00070B5002200230024058C4EF6FF763540D8
:101BC0000584038C8488828B48F6FF752A404FF683
:101BD000FF452A400D884FF6FF7606EA05252A4381
:101BE0004DF6FF752B400D8906EA05352B434D88D0
:101BF00006EA05352B430B4DA84202D00A4DA842F8
:101C000008D14BF6FF752C408D894FF6FF7606EA1A
:101C100085152C4384808283CD88A0F840500384AE
:101C200070BD0000002C0140003401400A46002134
:101C3000818B4FF2FF7319404FF6FF7303EA0223C3
:101C40001943818370478186704701877047818778
:101C50007047A0F84010704781847047028B4FF6A0
:101C6000F3731A400283028B0A4302837047028B8C
:101C70004FF2FF331A400283028B4FF6FF7303EAE1
:101C800001231A4302837047828B4FF6F3731A4085
:101C90008283828B0A4382837047828B4FF2FF33A9
:101CA0001A408283828B4FF6FF7303EA01231A43A3
:101CB00082837047002202881D4B98420ED01D4B34
:101CC00098420BD0B0F1804F08D01B4B984205D002
:101CD0001A4B984202D01A4B984204D14FF68F7398
:101CE0001A404B881A43174B984207D0164B98421C
:101CF00004D04FF6FF431A40CB881A4302808B88EA
:101D000083850B8803850A4B98420BD0094B984278
:101D100008D00E4B984205D00D4B984202D00D4B87
:101D2000984201D10B7A0386012383827047000019
:101D3000002C014000340140000400400008004035
:101D4000000C004000100040001400400040014022
:101D5000004401400048014010B540F225510C48B4
:101D600000F031F838B10A4800F0E8F8C4B2204673
:101D700000F0F8FB00BF40F22441054800F023F8D2
:101D800020B1034800F0DAF8C4B200BF10BD000073
:101D90000048004021B1828942F40052828104E06F
:101DA00082894DF6FF731A408281704702460020F7
:101DB000B1F5007F00D100BF13880B400BB10120AB
:101DC00000E00020704770B5024600240023002583
:101DD000002040F66A16B14200D100BFC1F342159F
:101DE00001F01F03012606FA03F3012D02D19689A3
:101DF000334006E0022D02D1168A334001E0968A74
:101E000033400C12012606FA04F41688344013B14C
:101E10000CB1012000E0002070BDF0B503460024A5
:101E200000260025002040F66A17B94200D100BF05
:101E30001846C1F3421401F01F06012707FA06F500
:101E4000012C01D10C3004E0022C01D1103000E053
:101E500014301AB107682F43076002E00768AF43E8
:101E60000760F0BD2DE9F04786B005460E46002418
:101E7000A24600BFA1460027B08900B100BF2F468F
:101E80002C8A4CF6FF700440F08804432C82AC8905
:101E90004EF6F3100440B088318908437189084335
:101EA0000443AC81AC8A4FF6FF400440B089044340
:101EB000AC8201A8FFF776FA1F48874202D1DDF80D
:101EC00010A001E0DDF80CA0A88900F4004040B1AA
:101ED0000AEBCA0000EB0A1031684900B0FBF1F8C8
:101EE00007E00AEBCA0000EB0A1031688900B0FB7A
:101EF000F1F86420B8FBF0F004012009642101FB33
:101F00001089A88900F4004040B1322000EBC900DC
:101F1000B0FBF1F000F00700044308E0322000EBD2
:101F200009106421B0FBF1F000F00F0004432C8194
:101F300006B0BDE8F08700000038014001468888FF
:101F4000C0F308007047C1F308028280704700BFE9
:101F5000FEE702E008C8121F08C1002AFAD1704744
:101F60007047002001E001C1121F002AFBD1704719
:101F70002DE9F04104460D4616461F46DDF818804F
:101F8000FFF71CF82060A580E680002020726072B8
:101F9000A77284F80B800220207305206073002054
:101FA000A073BDE8F0812DE9F04104460F461546C7
:101FB0009846002C03DB642C01DC204600E0002066
:101FC000044605FB04F06421B0FBF1F6B0B24346D1
:101FD0002A46394600F066F8BDE8F0812DE9F04167
:101FE00004460E461546607AA17A88421BDA207AAA
:101FF000A17A884217DBFEF7E1FF2168401A217BB6
:1020000088423AD3FEF7DAFF2060607AA17A8842EC
:1020100003DA607A401C607201E0A07A6072A07BF3
:10202000401CA07329E0607A217A884225D0FEF70F
:10203000C5FF2168401A617B88421ED3FEF7BEFFB0
:102040002060607A217A88420ADA607A217A8842AE
:1020500003DA607A401C60720CE0207A607209E05A
:10206000607A217A884203DD607A401E607201E066
:10207000207A6072A07B401CA073E388A288607AFB
:102080003146FFF790FF07463846A847BDE8F08184
:10209000002903DB642901DC0B4600E0002319461C
:1020A0000172704730B5054609B103B10AB9284637
:1020B00030BD994208DD05FB03F0B0FBF1F494421A
:1020C00000D91446A0B2F3E72846F1E770B50446FC
:1020D0000E460B48056814212046FEF73EF8E660E0
:1020E000002020610648006810B90548046070BDF2
:1020F00000E02D6928690028FBD12C6100BFF6E7BC
:10210000500000202DE9F04104460D4616461F46BA
:10211000258070196080A78000F064F8A06000201E
:10212000A0711DB9E16888470020E071BDE8F08129
:1021300010B51C48046832E0208800B92EE000F099
:1021400051F8A168401A2188884206D2E07920BB64
:102150000120E071E16888471FE000F043F8A168C2
:10216000401A6188884206D2E079B0B10020E0715F
:10217000E168884711E000F035F8A060A08860B100
:10218000A079401CC0B2A071A188884205DB002064
:102190002080E16888470020E07100BF2469002C9E
:1021A000CAD110BD5000002010B54FF08040FFF79D
:1021B0008CFB00B210BD10B500214FF08040FFF73E
:1021C0004BFD10BD10B50248FFF77FFB00B210BDFC
:1021D0000008004010B500210148FFF73DFD10BD8B
:1021E0000008004010B5FEF7E9FE10BD2DE9F041F2
:1021F00004460D4616460027B84635B1012D08D0D5
:10220000022D0AD0032D11D10BE000208046074695
:102210000CE001274FF0000808E064274FF46178D4
:1022200004E04FF4FA7740F6C41800BF00BF04EB97
:102230008401054A02EB8100334642463946FFF7E6
:1022400061FFBDE8F08100002801002008B50121F0
:102250001020FFF797F84FF40050ADF80000102061
:102260008DF8030002208DF8020069460648FEF74B
:10227000D1FD06490648FFF729FF0022022110463A
:10228000FFF7B4FF08BD0000001001404125000821
:10229000280100204FF4E060FEF774FF00F004F81E
:1022A00001E000F011F8FCE710B5054C03E0214611
:1022B00008344868804703488442F8D310BD0000C2
:1022C000342800086C28000810B50A4C0EE0FFF70F
:1022D00089FFE1680968401AA168884205D3FFF7C1
:1022E00081FFE168086060688047103402488442DA
:1022F000EDD310BD84280008C428000808B5FEF7F7
:102300008FFB1E2003465A224FF44871009011485B
:10231000FFF72EFE1E2003465A224FF4487100900C
:102320000D48FFF725FE1E2003465A224FF4487140
:1023300000900A48FFF71CFE1E2003465A224FF465
:10234000487100900648FFF713FE00F031F800F0E6
:1023500084F808BD78000020880000209800002044
:10236000A800002010B50A4A5A210A48FFF736FE95
:10237000094A5A210948FFF731FE094A5A210948FA
:10238000FFF72CFE084A5A210848FFF727FE10BD28
:10239000DD23000878000020F923000888000020D1
:1023A0008524000898000020A1240008A80000202F
:1023B00010B5002000F02EF8002000F037F8FFF7ED
:1023C000D1FF10BD10B50446002000F023F82046D0
:1023D00000F02CF8FFF7C6FF10BD000010B5044652
:1023E0000448FFF768FAA04203D0A1B20148FFF702
:1023F0002CFC10BD0004004010B504460448FFF753
:102400005DFAA04203D0A1B20148FFF720FC10BD45
:102410000004004010B50446E1B2024A0248FFF74A
:1024200037FE10BDDD2300087800002010B50446FB
:10243000E1B2024A0248FFF72BFE10BDF923000863
:102440008800002010B504460020FFF7EFFF20466B
:10245000FFF7E0FFFFF786FF10BD10B5002000F08A
:102460002DF8002000F036F8FFF77CFF10BD10B506
:102470000446002000F022F8204600F02BF8FFF779
:1024800071FF10BD10B504460448FFF711FAA042D1
:1024900003D0A1B20148FFF7D6FB10BD00040040F5
:1024A00010B504460448FFF70CFAA04203D0A1B2CD
:1024B0000148FFF7CEFB10BD0004004010B50446F4
:1024C000E1B2024A0248FFF7E3FD10BD852400088F
:1024D0009800002010B50446E1B2024A0248FFF716
:1024E000D7FD10BDA1240008A800002010B50446A7
:1024F0000020FFF7EFFF2046FFF7E0FFFFF732FF76
:1025000010BD00001FB50A480068039000900948FC
:10251000C06802900190FEF731FA0223002269465A
:10252000054800F028F9044800F01EF91FBD00001E
:102530002000002068010020B80100207047000042
:1025400030B90749C96841F40051054AD16005E036
:102550000349C96821F40051014AD1607047000065
:102560000010014010B504461248817808304454E8
:102570000838007C212809D10E48407C232805D149
:1025800001200C49C8700020887012E0094880784A
:10259000092809D900200749C87088700A21054810
:1025A0000830FDF7DAFD04E002488078401C01495C
:1025B000887010BD0002002070B504460D462A4602
:1025C00021460248FEF782FD70BD00000048004031
:1025D00070B500F029F8044604B970BD2078FF28D2
:1025E00002D06078FF2800D1F7E7002514E02078BA
:1025F0000C4911F8351088420DD16078094901EB7A
:10260000C5014978884206D1064800EBC5004168FB
:102610002046884702E06D1C042DE8D300BF00BFB0
:10262000DBE700005400002010B54148C0780128C5
:102630007CD100203E49C87001F108040846007AA8
:1026400040280BD10846C07A3D2807D10846007CB7
:10265000212803D10846407C232806D00A2134488B
:102660000830FDF77AFD002010BD3148407A41382E
:102670001A282CD2DFE800F00D0E0F1011121314DF
:1026800015161718191A1B1C1D1E1F202122232482
:10269000252600BF00BF00BF00BF00BF00BF00BFB6
:1026A00000BF00BF00BF00BF00BF00BF00BF00BF32
:1026B00000BF00BF00BF00BF00BF00BF00BF00BF22
:1026C00000BF00BF1A48407A1949087003E0FF2094
:1026D0001749087000BF00BF1548807A31380928B3
:1026E00013D2DFE800F005060708090A0B0C0D00FD
:1026F00000BF00BF00BF00BF00BF00BF00BF00BFE2
:102700000B48807A0A49487003E0FF200849487066
:1027100000BF00BF06496068486000240A210448E1
:102720000830FDF71AFD02489EE7FFE700209BE70F
:1027300000020020FF200A49487008700020C8707D
:102740008870084981F820000021064880F821108F
:10275000802180F822107F2180F82310704700002C
:1027600000020020DC01002010B504462421204690
:10277000FFF722FF10BD2DE9F04104460F46154634
:102780001E46B20004EB85003946FDF7CDFCBDE8DE
:10279000F08110B504466068FEF758FC10BD10B516
:1027A00004466068FEF728F910BD10B5044660685D
:1027B000FEF76AFC10BD10B504466068FEF726F906
:1027C00010BD00005553415254335F496E69740087
:1027D00050574D00456E636F646572006C65640010
:1027E0004D6F746F7200000000000000766F66612C
:1027F0004A757374466C6F6174496E6974000000A9
:10280000766F6661436F6D6D616E64506172736562
:1028100000000000D428000800000020780000001C
:10282000521F00084C29000878000020A011000069
:10283000621F0008E82700083D250008C42700089B
:10284000390B0008D0270008FD220008D427000813
:10285000F5080008DC2700084D220008E0270008E2
:1028600031090008EC27000835270008E827000890
:102870003D250008E82700083D250008000000006D
:1028800000000000D02700086523000800000000B9
:1028900014000020DC270008312100080A00000095
:1028A0001C000020E02700080525000805000000A6
:1028B0002C00002000280008D12500080A00000094
:1028C00074000020E82700083D25000800000000F3
:1028D00000000000000000000000000000000000F8
:1028E00000000000000000000000000000000000E8
:1028F00000000000000000000000000000000000D8
:1029000000000000000000000102030401020304B3
:102910000607080902040608000000000000000085
:10292000000000000000000057310000932700085D
:1029300057320000AB2700084D3100009F270008E8
:0C2940004D320000B72700080000000026
:04000005080000ED02
:00000001FF
